:100000000C945D000C947A000C947A000C947A00A5
:100010000C947A000C947A000C947A000C9492035D
:100020000C947A000C947A000C947A000C947A0068
:100030000C947A000C947A000C947A000C947A0058
:100040000C944F040C947A000C947A000C947A006F
:100050000C947A000C947A000C947A000C947A0038
:100060000C947A000C947A00000000080002010051
:100070000003040700000000000000000200000070
:1000800000250028002B0000000000240027002A83
:100090000004040404040404040202020202020331
:1000A000030303030301020408102040800102043B
:1000B0000810200102040810200011241FBECFEFF9
:1000C000D8E0DEBFCDBF12E0A0E0B1E0E0E6FBE0AB
:1000D00002C005900D92AA30B107D9F722E0AAE03C
:1000E000B2E001C01D92A832B207E1F70E94990464
:1000F0000C94AE050C9400003FB7F89480910F0269
:1001000090911002A0911102B091120226B5A89B05
:1001100005C02F3F19F00196A11DB11D3FBFBA2F99
:10012000A92F982F8827820F911DA11DB11DBC01F9
:10013000CD0142E0660F771F881F991F4A95D1F7BE
:1001400008958F929F92AF92BF92CF92DF92EF92DB
:10015000FF926B017C010E947C004B015C01C11489
:10016000D104E104F104F1F00E947C00DC01CB0138
:1001700088199909AA09BB09883E9340A105B105D0
:1001800070F321E0C21AD108E108F10888EE880E68
:1001900083E0981EA11CB11CC114D104E104F10438
:1001A00019F7DDCFFF90EF90DF90CF90BF90AF9029
:1001B0009F908F9008952F923F924F925F926F92EF
:1001C0007F928F929F92AF92BF92CF92DF92EF92E7
:1001D000FF920F931F93CF93DF93CDB7DEB72D9789
:1001E0000FB6F894DEBF0FBECDBF5C874B87698327
:1001F0007A839A878987212C312CEB85FC852E16F2
:100200003F060CF076C2A981BA816D917D91BA83C7
:10021000A98380E496E00E942F058B01E985FA8589
:1002200081919191FA87E98798878F838091000166
:10023000893029F4ECE7F0E0F491FD877BC08F3F33
:1002400009F0EDC189E080930001ECE7F0E08491D2
:100250008F3F09F4E4C1813019F1823009F444C0C0
:10026000811167C014BC15BC84B5826084BD85B59E
:10027000816085BDEAE9F0E08491E82FF0E0EE0FBF
:10028000FF1FE358FF4F8591949190931B02809339
:100290001A02EEEAF0E08491809319021D864DC0A7
:1002A000109280001092810080918100886080937C
:1002B000810080918100816080938100EAE9F0E013
:1002C0008491E82FF0E0EE0FFF1FE358FF4F859178
:1002D00094919093180280931702EEEAF0E08491D3
:1002E00080931602F1E023C01092B0001092B1008A
:1002F0008091B00082608093B0008091B1008160F5
:100300008093B100EAE9F0E08491E82FF0E0EE0F8D
:10031000FF1FE358FF4F85919491909315028093AE
:100320001402EEEAF0E0849180931302F2E0FD877C
:1003300004C08D872D8527FD72C1EEEAF0E044915F
:10034000EAE9F0E08491882399F090E0880F991F02
:10035000FC01E957FF4FA591B491FC01E358FF4F11
:10036000259134918FB7F8949C91492B4C938FBF72
:10037000C801012E000CAA0BBB0B8B839C83AD83A1
:10038000BE83AF81B8854D01A12CB12C8D858D7FA9
:1003900009F0B9C060E072E18AE790E0A50194013C
:1003A0000E94650529013A0169017A01B1E0CB1A81
:1003B000D108E108F108EFEFCE16D104E104F10411
:1003C00009F008F44DC060E472E48FE090E0A5010C
:1003D00094010E94650569017A01F1E0CF1AD10804
:1003E000E108F1082D85223001F58FEFC816D10400
:1003F000E104F10409F008F47AC160E970ED83E0EA
:1004000090E0A50194010E94650569017A0191E0DF
:10041000C91AD108E108F108AFEFCA16D104E10406
:10042000F10409F0D0F583E067C0BFEFCB16D1042B
:10043000E104F104B9F0B0F068E478EE81E090E016
:10044000A50194010E94650569017A01E1E0CE1AD7
:10045000D108E108F108FD85FF2309F4EFC03EC192
:1004600081E001C082E02D85222391F045C0D301B7
:10047000C2012AE0B595A795979587952A95D1F75A
:100480006C017D0121E0C21AD108E108F10885E084
:1004900095B5987F892B85BD72C068E478EE81E0C0
:1004A00090E0A50194010E94650569017A01F1E0DF
:1004B000CF1AD108E108F1082FEFC216D104E104E8
:1004C000F10409F008F4B8C064E274EF80E090E051
:1004D000A50194010E94650569017A0181E0C81AAD
:1004E000D108E108F1089FEFC916D104E104F10435
:1004F00011F008F0C5C085E09091B100987F892B7C
:100500008093B1003CC060E072E18AE790E0A50111
:1005100094010E94650569017A0181E0C81AD10839
:10052000E108F108C114D10491E0E906F10488F072
:1005300068E478EE81E090E0A50194010E946505F1
:1005400069017A01A1E0CA1AD108E108F10893E033
:1005500001C091E0BD85B13091F480918100887F28
:10056000892B809381008B819C81AD81BE81892BF9
:100570008A2B8B2B61F42FEF3FEFA9012FC08B81CA
:100580009C81AD81BE81892B8A2B8B2B71F02F81B1
:100590003885220F331FD8010E94840528EE33E0EE
:1005A00040E050E00E94430503C02FEF3FEFA90158
:1005B0009D85913099F0923019F1911130C0C7BCEE
:1005C0002093240230932502409326025093270261
:1005D00080916E00826080936E0021C0D09289006D
:1005E000C09288002093200230932102409322027F
:1005F0005093230280916F00826080936F000FC040
:10060000C092B30020931C0230931D0240931E023F
:1006100050931F0280917000826080937000B80137
:10062000625E7F4F072E000C880B990B0E94A10081
:10063000AFEF2A1A3A0AE1CD84E05ECFAFEFCA16D7
:10064000D104E104F104D1F0C8F062E17AE780E07E
:1006500090E0A50194010E94650569017A0181E09D
:10066000C81AD108E108F1089FEFC916D104E104C6
:10067000F10411F008F0FBCE84E00ACF83E008CF4C
:1006800062E17AE780E090E0A50194010E946505AF
:1006900069017A01B1E0CB1AD108E108F108EFEF66
:1006A000CE16D104E104F104B9F0B0F0D301C201D7
:1006B0005AE0B595A795979587955A95D1F76C010E
:1006C0007D01E1E0CE1AD108E108F108FD85FF23A4
:1006D00009F4DDCE87E010CF86E0C5CEFFEFCF1660
:1006E000D104E104F10409F058F684E0BCCE82E0C4
:1006F00003CF2D960FB6F894DEBF0FBECDBFDF91AE
:10070000CF911F910F91FF90EF90DF90CF90BF900E
:10071000AF909F908F907F906F905F904F903F90A1
:100720002F9008951F920F920FB60F9211242F93BE
:100730003F938F939F93AF93BF93EF93FF938091DA
:100740001C0290911D02A0911E02B0911F02892BE4
:100750008A2B8B2B59F180911302E0911402F091B6
:10076000150290818927808380911C0290911D023F
:10077000A0911E02B0911F02181619061A061B0638
:100780000CF080C080911C0290911D02A0911E026D
:10079000B0911F020197A109B10980931C029093A7
:1007A0001D02A0931E02B0931F026CC08091000135
:1007B000ECE7F0E0E4919FEF90930001E130B9F0B5
:1007C00098F0E230C9F4909170009D7F9093700092
:1007D00091E09093B0009091B100987F94609093D5
:1007E000B1001092B30008C010926E0005C0909145
:1007F0006F009D7F90936F0090E0FC01E859FF4FE0
:100800002491FC01EB55FF4F3491FC01EF56FF4F53
:10081000E491EE23B9F1222339F1233091F038F439
:100820002130A9F0223001F584B58F7D12C0273028
:1008300091F02830A1F02430B9F4809180008F7DB0
:1008400003C0809180008F77809380000DC084B5B5
:100850008F7784BD09C08091B0008F7703C08091ED
:10086000B0008F7D8093B000F0E0EE0FFF1FE358E3
:10087000FF4FA591B4918FB7F894EC9130953E233A
:100880003C938FBFFF91EF91BF91AF919F918F915B
:100890003F912F910F900FBE0F901F9018951F92B0
:1008A0000F920FB60F9211242F933F938F939F9324
:1008B000AF93BF9380910B0290910C02A0910D0217
:1008C000B0910E0230910A0223E0230F2D3720F45D
:1008D0000196A11DB11D05C026E8230F0296A11D9A
:1008E000B11D20930A0280930B0290930C02A093F7
:1008F0000D02B0930E0280910F0290911002A09110
:100900001102B09112020196A11DB11D80930F0238
:1009100090931002A0931102B0931202BF91AF9175
:100920009F918F913F912F910F900FBE0F901F902D
:100930001895CF93DF93CDB7DEB7CC58D1090FB65A
:10094000F894DEBF0FBECDBF789484B5826084BDBD
:1009500084B5816084BD85B5826085BD85B58160C3
:1009600085BD80916E00816080936E001092810041
:1009700080918100826080938100809181008160FC
:1009800080938100809180008160809380008091BD
:10099000B10084608093B1008091B0008160809349
:1009A000B00080917A00846080937A0080917A0010
:1009B000826080937A0080917A00816080937A00CF
:1009C00080917A00806880937A001092C10080E460
:1009D000E1E0F1E0DE01A35BBF4F01900D928A954B
:1009E000E1F78CE4E1E4F1E0DE01119601900D9273
:1009F0008A95E1F740E250E0BE016F5F7F4FCE0184
:100A0000835B9F4F0E94DB0068EE73E080E090E024
:100A10000E94A1008EE3EDE8F1E0DE01A35BBF4F91
:100A200001900D928A95E1F78EE3EBECF1E0DE01A7
:100A3000119601900D928A95E1F74FE150E0BE01C9
:100A40006F5F7F4FCE01835B9F4F0E94DB0000E012
:100A500010E001151105E9F30E940000FACF97FBA1
:100A6000072E16F4009407D077FD09D00E948B055D
:100A700007FC05D03EF4909581959F4F08957095A1
:100A800061957F4F0895A1E21A2EAA1BBB1BFD01A1
:100A90000DC0AA1FBB1FEE1FFF1FA217B307E4075D
:100AA000F50720F0A21BB30BE40BF50B661F771FB5
:100AB000881F991F1A9469F7609570958095909595
:100AC0009B01AC01BD01CF010895052E97FB1EF4DB
:100AD00000940E947C0557FD07D00E94430507FC47
:100AE00003D04EF40C947C0550954095309521959B
:100AF0003F4F4F4F5F4F089590958095709561954A
:100B00007F4F8F4F9F4F08950E949F05B7FF089515
:100B1000821B930B0895AA1BBB1B51E107C0AA1FA0
:100B2000BB1FA617B70710F0A61BB70B881F991F8E
:100B30005A95A9F780959095BC01CD010895A29F83
:100B4000B001B39FC001A39F700D811D1124911DA1
:100B5000B29F700D811D1124911D0895F894FFCF4F
:100B6000FF06010B02DC00B801E900D20100000021
:100B70000006010B02DC00B801E900D20100000010
:100B800000AF005D01930026019C003701000000CA
:100B900000AF005D01930026019C003701000000BA
:100BA000000C000C000C000C000C000C00060003F4
:100BB000000C000C000C000C000C000C00060003E4
:100BC000000C000C000C000C000C000C00060003D4
:100BD000000C000C000C000C000C000C00060006C1
:100BE0000012001200120006000600060026010096
:100BF000005D01260100002601880126010601266C
:100C0000010000B801260100002601D201B8015DF3
:100C1000012601B8014B022601060100000601DC95
:100C2000004A0126010000260126010800080006EE
:100C3000001000100010000800080008000800085C
:100C4000000600100010001000080008000800084E
:100C50000008000800100010001000100008000834
:0A0C60000002000800040004000078
:00000001FF
