:100000000C9465000C948D000C948D000C948D0064
:100010000C948D000C948D000C948D000C948D002C
:100020000C948D000C948D000C948D000C948D001C
:100030000C948D000C948D000C948D000C948D000C
:100040000C944F070C948D000C94A0060C947A0627
:100050000C948D000C948D000C948D000C948D00EC
:100060000C948D000C948D0000000008000201002B
:100070000003040700000000000000007C3C3E5E1E
:100080002B3D3F2F5B5D3B2C2A225C0000000000D3
:10009000250028002B0000000000240027002A0073
:1000A000040404040404040402020202020203031E
:1000B0000303030301020408102040800102040826
:1000C00010200102040810209E1811241FBECFEF3B
:1000D000D8E0DEBFCDBF11E0A0E0B1E0E0E2F8E3A0
:1000E00002C005900D92A23EB107D9F726E0A2EE1C
:1000F000B1E001C01D92A53BB207E1F710E0C5E6F3
:10010000D0E004C02197FE010E94D519C436D10762
:10011000C9F70E9443130C940E1C0C940000DC01E0
:100120005996ED91FC915A973097B9F0838994894B
:10013000A589B6894285538564857585841B950B91
:10014000A60BB70B811520E89207A105B10538F081
:100150008FEF9FE7A0E0B0E0089580E090E0089581
:10016000CF93DF931F92CDB7DEB76983DC01ED91AA
:10017000FC910280F381E02D41E050E0BE016F5F11
:100180007F4F09950F90DF91CF910895EF92FF92E5
:100190000F931F93CF93DF93EC019091E3019F5F47
:1001A000292F27702093E30190FF02C090E801C03F
:1001B00090E021FD9064247009F0906220E1290F05
:1001C000FE013C967E018FE0E80EF11C00E011E09C
:1001D0006191662331F070E0C8010E94A6196F5F3B
:1001E00001C060E0DF0114976C93322F369F030E3D
:1001F00030E0311D1124CF010797311103C0EC010C
:10020000188203C03150EC013883662311F061502D
:100210006C93EE15FF05E1F6DF91CF911F910F91E1
:10022000FF90EF90089580E991E00895569A08951F
:100230000F931F93CF93DF93CDB7DEB762970FB6BF
:10024000F894DEBF0FBECDBF8C01F901DC011C9616
:100250008C917A8369835C834B835E834D83908129
:100260009D8791819E8792819F87813029F4CE015D
:1002700001960E94C60006C01C861B861A86198637
:1002800018861F8283E0888B1A8A198AD801ED911B
:10029000FC910484F585E02DBE016F5F7F4FC8019E
:1002A000099562960FB6F894DEBF0FBECDBFDF9101
:1002B000CF911F910F9108950F931F93CF93DF93C9
:1002C000CDB7DEB762970FB6F894DEBF0FBECDBFD5
:1002D0008C01F901DC011C968C917A8369835C8323
:1002E0004B835E834D8390819D8791819E87928110
:1002F0009F87813029F4CE0101960E94C60006C076
:100300001C861B861A86198618861F82188A1A8AE6
:10031000198AD801ED91FC910484F585E02DBE0188
:100320006F5F7F4FC801099562960FB6F894DEBFE4
:100330000FBECDBFDF91CF911F910F91089580E047
:1003400090E00895FC01858596850895CF93DF930D
:1003500000D000D000D0CDB7DEB7AB011C821D822B
:100360001E82DC01ED91FC910190F081E02D19825B
:100370001A821B829E012F5F3F4FBE016C5F7F4F31
:10038000099526960FB6F894DEBF0FBECDBFDF915C
:10039000CF910895CF93DF93EC01898D9A8D0097CB
:1003A00039F481E090E09B838A8380E090E00BC089
:1003B000FC01138212820E945F0DE98DFA8D228169
:1003C0003381232B71F7DF91CF9108954F925F9284
:1003D0006F927F928F92AF92BF92CF92EF92FF92E5
:1003E0000F931F93CF93DF933C01EB010E941E07F5
:1003F000F30127853089621B730B6A307105B0F3F6
:10040000F894E881F9815BB150648BB18F7B8BB933
:100410006A859F81262F291B922F2F83BF844A80B4
:100420005B807D85FC84EE847F5FF394E3943E8162
:100430004885A984CB841181D20120E0C32F022FEB
:10044000322F3181112788943111390F08F43FEF91
:100450009195889470FD130F1795889471FD130F73
:100460001795889472FD130F1795889473FD130FD9
:100470001795889474FD130F1795889475FD130FC5
:100480001795889476FD130F1795889477FD130FB1
:1004900017958894232F7111212F960F122F002C5E
:1004A0005BB900C017FF8BB930812227889400C048
:1004B00000C0002C8BB931113C0F00C0002C5BB97F
:1004C00000C016FF8BB908F43FEFC195889400C0B7
:1004D00000C0002C8BB9F0FC230F00C0002C5BB9CE
:1004E00000C015FF8BB927958894F1FC230F00C03D
:1004F00000C0002C8BB92795889400C0002C5BB9F4
:1005000000C014FF8BB9F2FC230F2795889400C01C
:1005100000C0002C8BB9F3FC230F00C0002C5BB98A
:1005200000C013FF8BB927958894F4FC230F00C0FB
:1005300000C0002C8BB92795889400C0002C5BB9B3
:1005400000C012FF8BB9F5FC230F2795889400C0DB
:1005500000C0002C8BB9F6FC230F00C0002C5BB947
:1005600000C011FF8BB927958894F7FC230F00C0BA
:1005700000C0002C8BB92795889400C0002C5BB973
:1005800000C010FF8BB9132FF110122FCA0D00C03D
:1005900000C0002C8BB900C000C0002C5BB900C0AB
:1005A00017FF8BB932812227889400C000C0002C2D
:1005B0008BB93111340F00C0002C5BB900C016FF9D
:1005C0008BB908F43FEFEB0DF11D00C000C0002C0B
:1005D0008BB9E0FC230F00C0002C5BB900C015FFF5
:1005E0008BB927958894E1FC230F00C000C0002C34
:1005F0008BB92795889400C0002C5BB900C014FF0C
:100600008BB9E2FC230F2795889400C000C0002C12
:100610008BB9E3FC230F00C0002C5BB900C013FFB3
:100620008BB927958894E4FC230F00C000C0002CF0
:100630008BB92795889400C0002C5BB900C012FFCD
:100640008BB9E5FC230F2795889400C000C0002CCF
:100650008BB9E6FC230F00C0002C5BB900C011FF72
:100660008BB927958894E7FC230F00C000C0002CAD
:100670008BB92795889400C0002C5BB900C010FF8F
:100680008BB9132FE110122F419500C000C0002C30
:100690008BB94C0D00C000C05BB900C017FF8BB90F
:1006A00031812227889400C000C0002C8BB9311101
:1006B000390F00C0002C5BB900C016FF8BB908F4DD
:1006C0003FEF9195889400C000C0002C8BB970FD5D
:1006D000230F00C0002C5BB900C015FF8BB9279514
:1006E000889471FD230F00C000C0002C8BB92795A2
:1006F000889400C0002C5BB900C014FF8BB972FD58
:10070000230F2795889400C000C0002C8BB973FD7F
:10071000230F00C0002C5BB900C013FF8BB92795D5
:10072000889474FD230F00C000C0002C8BB927955E
:10073000889400C0002C5BB900C012FF8BB975FD16
:10074000230F2795889400C000C0002C8BB976FD3C
:10075000230F00C0002C5BB900C011FF8BB9279597
:10076000889477FD230F00C000C0002C8BB927951B
:10077000889400C0002C5BB900C010FF8BB9132F08
:100780007111122F960F00C000C0002C8BB9119769
:1007900009F086CE20EE31E0D2010E94BA19DC01C8
:1007A000CB01F4E0B695A79597958795FA95D1F783
:1007B00020E030E0A9016AE9469E040C411D569EE6
:1007C000400D511D1124450D511D840F951FA11D74
:1007D000B11D893E43E09407A105B10508F434C07A
:1007E000885E9340A109B10942E0B695A795979517
:1007F00087954A95D1F747E0849F080E211D949F65
:10080000200D311D1124290F311D6091E20170E08E
:10081000860F971F820F931F40918303509184038B
:100820006091850370918603292F3327420F531F50
:10083000611D711D4093830350938403609385036E
:10084000709386038093E20178940E941E07F3015F
:10085000708B6787DF91CF911F910F91FF90EF9081
:10086000CF90BF90AF908F907F906F905F904F90A0
:100870000895EF92FF920F931F93CF93DF93EC01B4
:100880007B018A011B821A8288EE93E0A0E0B0E02F
:100890008C839D83AE83BF838BE491E099838883AF
:1008A0008DE190E00E94DB199A8F898F009779F093
:1008B0002DE1F701DC0101900D922A95E1F74CE062
:1008C00050E0B801CE010C960E94FF1B188EDF91FC
:1008D000CF911F910F91FF90EF9008952F923F922B
:1008E0004F925F926F927F928F929F92AF92BF9240
:1008F000CF92DF92EF92FF920F931F93CF93DF93EC
:1009000000D0CDB7DEB7FC018581882309F4D9C0BA
:10091000848180FFD6C021E02A8343895489658978
:10092000768982859385A485B585481759076A0716
:100930007B0709F41A826F013A81832F90E0DE0170
:1009400011964D013F01B6E06B0E711C892B09F425
:100950007DC0D6011A964D915D916D917C911D9748
:100960005A01B1E0BB22F60125811A012B0189E071
:1009700056944794379427948A95D1F7838D948D14
:10098000223061F4FC01828D938DA48DB58DBC0164
:10099000CD01620D731D841D951D45C0DC011496AB
:1009A0001C9111501221A114B104D1F4111118C0DD
:1009B000452B462B472B51F4F6018789908DA18D4D
:1009C000B28D86839783A087B1870AC046815781FD
:1009D0006085718593010E94870A882309F471C09C
:1009E000F601238D348D86819781A085B18502978C
:1009F000A109B109AC01BD01F901058404C0440F8E
:100A0000551F661F771F0A94D2F786859785A089A0
:100A1000B189840F951FA61FB71FBC01CD01610FBF
:100A2000711D811D911DD60114962C9126FF14C0B5
:100A30000091000110910101209102013091030108
:100A4000601771078207930751F506C0FA81FF23EB
:100A5000C1F1898190E037C040E00E949E0988235F
:100A600081F1F501EB56FC4FD401CF010196E81757
:100A7000F90719F021912D93FACFEFEF8E1A9E0A04
:100A8000F60182859385A485B5850196A11DB11DCA
:100A900082879387A487B58780E090E057CF740161
:100AA00001E010E09501AB01BC01809195059091AA
:100AB00096050E946408882321F0BFEF8B1A9B0AD9
:100AC000DFCF8FEF9FEF0F900F90DF91CF911F91AE
:100AD0000F91FF90EF90DF90CF90BF90AF909F90DD
:100AE0008F907F906F905F904F903F902F900895E0
:100AF000FC01818D928D009711F00C946E048FEFA4
:100B00009FEF08950F931F93CF93DF93FC01818D87
:100B1000928D0097B9F0EF010E946E048C010F3F97
:100B20008FEF180791F0898D9A8DFC0142855385CE
:100B30006485758541505109610971090E94740BE2
:100B4000C80105C080E090E002C08FEF9FEFDF9109
:100B5000CF911F910F910895FC01918D828D98176F
:100B600061F0828DDF01A80FB11D5D968C91928D91
:100B70009F5F9F73928F90E008958FEF9FEF08958E
:100B8000FC01918D828D981731F0828DE80FF11D57
:100B9000858D90E008958FEF9FEF0895FC01918D72
:100BA000228D892F90E0805C9F4F821B91098F736B
:100BB0009927089587E995E00E94CE0521E0892BC9
:100BC00009F420E0822F0895FC01848DDF01A80F35
:100BD000B11DA35ABF4F2C91848D90E001968F7365
:100BE0009927848FA689B7892C93A089B1898C9184
:100BF00080648C93938D848D981306C00288F3894A
:100C0000E02D80818F7D80830895EF92FF920F9376
:100C10001F93CF93DF93EC0181E0888F9B8D8C8DA8
:100C2000981305C0E889F989808185FD24C0F62ED6
:100C30000B8D10E00F5F1F4F0F731127E02E8C8D6F
:100C4000E8120CC00FB607FCFACFE889F989808159
:100C500085FFF5CFCE010E94E405F1CF8B8DFE011B
:100C6000E80FF11DE35AFF4FF0820B8FEA89FB89F1
:100C70008081806207C0EE89FF896083E889F989F5
:100C800080818064808381E090E0DF91CF911F912B
:100C90000F91FF90EF900895CF93DF93EC01888D33
:100CA0008823C9F0EA89FB89808185FD05C0A88970
:100CB000B9898C9186FD0FC00FB607FCF5CF8081F6
:100CC00085FFF2CFA889B9898C9185FFEDCFCE0140
:100CD0000E94E405E7CFDF91CF91089580E090E096
:100CE000892B29F00E94DA0581110C9400000895E7
:100CF0000E94D21B1F920F920FB60F9211242F93B6
:100D00003F934F935F936F937F938F939F93AF9393
:100D1000BF93EF93FF9387E995E00E94E405FF916D
:100D2000EF91BF91AF919F918F917F916F915F9163
:100D30004F913F912F910F900FBE0F901F901895DC
:100D40001F920F920FB60F9211242F938F939F93A0
:100D5000EF93FF93E091A705F091A8058081E091C2
:100D6000AD05F091AE0582FD12C090818091B00575
:100D70008F5F8F732091B105821751F0E091B0051C
:100D8000F0E0E956FA4F958F8093B00501C080815D
:100D9000FF91EF919F918F912F910F900FBE0F9028
:100DA0001F90189590E0FC01E859FF4F3491FC0129
:100DB000EC54FF4F2491FC01E056FF4FE491EE23E9
:100DC00009F43BC0332339F1333091F038F431303A
:100DD000A9F0323001F584B58F7D12C0373091F023
:100DE0003830A1F03430B9F4809180008F7D03C099
:100DF000809180008F77809380000DC084B58F77BD
:100E000084BD09C08091B0008F7703C08091B0008D
:100E10008F7D8093B000F0E0EE0FFF1FE457FF4F8F
:100E2000A591B4918FB7F894EC91611103C020950E
:100E30002E2301C02E2B2C938FBF08953FB7F8941B
:100E400080918E0390918F03A0919003B0919103B4
:100E500026B5A89B05C02F3F19F00196A11DB11D15
:100E60003FBFBA2FA92F982F8827820F911DA11D50
:100E7000B11DBC01CD0142E0660F771F881F991F8D
:100E80004A95D1F708952FB7F89460918303709134
:100E9000840380918503909186032FBF08951F924C
:100EA0000F920FB60F9211242F933F938F939F931E
:100EB000AF93BF938091830390918403A0918503A6
:100EC000B091860330918D0323E0230F2D3720F45A
:100ED0000196A11DB11D05C026E8230F0296A11D94
:100EE000B11D20938D038093830390938403A0937B
:100EF0008503B093860380918E0390918F03A09118
:100F00009003B09191030196A11DB11D80938E03B2
:100F100090938F03A0939003B0939103BF91AF91EF
:100F20009F918F913F912F910F900FBE0F901F9027
:100F300018958FB7F894809188038FBF089561E06A
:100F4000FC0184810E94D206809187038111109256
:100F5000870308958EBD00000DB407FEFDCF8EB54A
:100F600008958FEF0C94AA070F931F93CF93DF93ED
:100F7000EB010E9443078B010E94B1078F3F49F0AC
:100F80000E944307601B710B6C177D07A8F380E07C
:100F900001C081E0DF91CF911F910F910895CF9310
:100FA000DF93EC018E81882389F08F8198859C01E5
:100FB0002F5F3F4F38872F838230924018F40E9472
:100FC000B107F3CFCE010E949F071E82DF91CF9120
:100FD00008958CBD9DBD0895CF93DF93EC01809162
:100FE0008703811109C081E08093870380914106C6
:100FF000909142060E94E90760E08C81DF91CF91D9
:101000000C94D206CF92DF92FF920F931F93CF934F
:10101000DF9300D000D0CDB7DEB76C01F62E298368
:101020003A834B835C830E94CF07C6010E94EC0782
:101030006CE271E0C6010E94B4078F2D80640E94AB
:10104000AA0708E110E05C814B813A812981DA012D
:10105000C901002E04C0B695A795979587950A9467
:10106000D2F729833A834B835C830E94AA070850F6
:10107000110929813A814B815C81083F8FEF180764
:1010800031F7FF2029F0E8E0FE1204C087E803C032
:1010900085E901C08FEF0E94AA0710E00E94B10706
:1010A000F601828787FF04C01F3F11F01F5FF6CF54
:1010B0000F900F900F900F90DF91CF911F910F9194
:1010C000FF90DF90CF900895AF92BF92CF92DF92C2
:1010D000EF92FF920F931F93CF93DF93EC0169017F
:1010E000C801820F931F8130924008F070C08E813A
:1010F000882371F088819981AA81BB81481759079B
:101100006A077B0729F48F819885C816D906B0F540
:10111000488359836A837B838B85833039F089E0E8
:10112000440F551F661F771F8A95D1F79A01AB01AF
:1011300061E1CE010E940208882319F083E08D83CB
:1011400046C00E9443075B010E94B1078A878F3F18
:1011500049F40E9443076A197B096D327140A0F37C
:101160008FE003C08E3F31F08DE08D83CE010E9471
:101170009F072DC018861F8281E08E838F819885FE
:101180008C159D0540F40E94B1078F8198850196CA
:1011900098878F83F3CF6701E00EF11ECE14DF0432
:1011A00031F00E94B107F60181936F01F7CF8F8173
:1011B0009885080F191F18870F838985882319F0D0
:1011C0000115124048F0CE010E94CF0705C0CE01A4
:1011D0000E949F0780E001C081E0DF91CF911F91C5
:1011E0000F91FF90EF90DF90CF90BF90AF90089558
:1011F000EF92FF920F931F93CF93DF93EC0179014E
:10120000411551056105710511F482E13CC08B85E2
:10121000833039F089E0440F551F661F771F8A9588
:10122000D1F79A01AB0168E1CE010E940208882340
:1012300011F084E028C08EEF0E94AA0787018EEF8C
:10124000F81AF80181918F010E94AA070E151F0557
:10125000C1F78FEF0E94AA078FEF0E94AA070E9492
:10126000B1078A878F71853031F081E18D83CE019E
:101270000E949F0709C068E572E0CE010E94B40792
:10128000811107C085E18D83CE010E949F0780E018
:1012900013C020E030E0A9016DE0CE010E940208F9
:1012A000811104C00E94B107882311F084E1EBCFC3
:1012B000CE010E949F0781E0DF91CF911F910F9196
:1012C000FF90EF900895809192038823A9F14091B7
:1012D000000150910101609102017091030125E923
:1012E00033E080919505909196050E94F808811150
:1012F00002C080E008954091890350918A03609173
:101300008B0370918C03411551056105710591F0B6
:1013100025E933E080919505909196050E94F808A3
:10132000882339F31092890310928A0310928B0359
:1013300010928C031092920381E008958F929F92F5
:10134000AF92BF92EF92FF920F931F93CF934B01F7
:101350005C01C42F8091000190910101A0910201D4
:10136000B091030188159905AA05BB0501F10E94FA
:101370006309811102C080E020C085E9E82E83E086
:10138000F82E00E012E020E030E0B501A4018091E9
:101390009505909196050E946408882361F38092D8
:1013A000000190920101A0920201B092030180918C
:1013B0009203C82BC093920381E0CF911F910F91AC
:1013C000FF90EF90BF90AF909F908F9008954F92B5
:1013D0005F926F927F928F929F92AF92BF92CF92C5
:1013E000DF92EF92FF920F931F93CF93DF93EC0165
:1013F0006A017B01280139014230510561057105FF
:1014000010F480E073C089859A85AB85BC85019610
:10141000A11DB11D84179507A607B70790F38B8808
:101420009C88AD88BE888F89803129F4BB27AF2D79
:101430009E2D8D2D09C0DB01CA0147E0B695A79509
:10144000979587954A95D1F7880E991EAA1EBB1EBF
:101450008091000190910101A0910201B0910301DE
:1014600088169906AA06BB0679F48F898031A1F403
:10147000DD24EE24FF24C601880F991FFC01EB56E2
:10148000FC4F5182408219C040E0C501B4010E9466
:101490009E098111EACFB5CFE894C7F8DD24EE2488
:1014A000FF24C601880F991F880F991FFC01EB5676
:1014B000FC4F4082518262827382809192038160EC
:1014C000809392038A89823080F08D819E81AF81E2
:1014D000B885880E991EAA1EBB1E80928903909221
:1014E0008A03A0928B03B0928C0381E0DF91CF91AD
:1014F0001F910F91FF90EF90DF90CF90BF90AF9032
:101500009F908F907F906F905F904F9008958F92F3
:101510009F92AF92BF92CF92DF92EF92FF920F9382
:101520001F93CF93DF93FC0181859285A385B485BA
:101530000196A11DB11D84179507A607B70710F4E2
:1015400080E05CC083899489A589B689C789C03148
:1015500029F4852E962EA72EBB2409C04A015B01D3
:10156000C7E0B694A79497948794CA95D1F7E901F8
:101570006A017B018F01BC01CD01680D791D8A1DB7
:101580009B1D8090000190900101A0900201B090FD
:101590000301681579058A059B0599F4F801878987
:1015A0008031A9F4B701A601552766277727440F94
:1015B000551FFA01EB56FC4F80819181A0E0B0E00D
:1015C00018C040E00E949E098111E8CFB9CFB70151
:1015D000A6014F77552766277727440F551F440FDD
:1015E000551FFA01EB56FC4F80819181A281B38196
:1015F000BF7088839983AA83BB8381E0DF91CF91F9
:101600001F910F91FF90EF90DF90CF90BF90AF9020
:101610009F908F9008954F925F926F927F92AF92BA
:10162000BF92CF92DF92EF92FF920F931F93CF93CF
:10163000DF9300D000D0CDB7DEB78C0149835A8349
:101640006B837C835901C12CD12C7601412C82E023
:10165000582E612C712C49815A816B817C819E01AD
:101660002F5F3F4FC8010E94870A882351F1D301A1
:10167000C201F801058404C0880F991FAA1FBB1F6F
:101680000A94D2F7C80ED91EEA1EFB1E49815A8160
:101690006B817C818789803129F088EF9FEFAFEFE4
:1016A000BFE004C088EF9FEFA0E0B0E04817590703
:1016B0006A077B0780F2F501C082D182E282F38261
:1016C00081E00F900F900F900F90DF91CF911F91BD
:1016D0000F91FF90EF90DF90CF90BF90AF907F90F1
:1016E0006F905F904F9008958F929F92AF92BF92AC
:1016F000CF92DF92EF92FF920F931F93CF93DF93DE
:10170000EC018D81811102C080E077C00B891C89BA
:101710002D893E890417150726073707A8F36A01A4
:101720007B01823029F4CA86DB86EC86FD860DC0FB
:10173000C114D104E104F10451F41E821F82188601
:1017400019861A861B861C861D8681E056C08A84EF
:101750009B84AC84BD84EB8DFC8D258530E0275FB8
:101760003F4FB501A4014150510961097109022E91
:1017700004C076956795579547950A94D2F7D70197
:10178000C6010197A109B10904C0B695A79597951F
:1017900087952A95D2F784179507A607B70720F0F3
:1017A00089288A288B2849F44F89588D698D7A8D2C
:1017B0004E835F836887798704C0841B950BA60BD3
:1017C000B70B4C015D018E010A5F1F4F811491041C
:1017D000A104B10409F4A7CF4E815F8168857985A2
:1017E00098018B8D9C8D0E94870A91E0891A91083F
:1017F000A108B1088111EACF87CFDF91CF911F9166
:101800000F91FF90EF90DF90CF90BF90AF909F909F
:101810008F9008953F924F925F926F927F928F9236
:101820009F92AF92BF92CF92DF92EF92FF920F936F
:101830001F93CF93DF93CDB7DEB72C970FB6F894F5
:10184000DEBF0FBECDBF5C01DC015B968D909C902E
:101850005C971696CD90DD90ED90FC901997C11491
:10186000D104E104F10439F0BFEFCB1ADB0AEB0A33
:10187000FB0A312C07C0F401C080D180E280F380E4
:1018800033243394F40181859285A385B4859C012A
:10189000AD012F5F3F4F4F4F5F4F29873A874B87EF
:1018A0005C87260137011D821E821F821886F40183
:1018B00081859285A385B4852D813E814F81588590
:1018C000281739074A075B0708F063C089859A859E
:1018D000AB85BC858C159D05AE05BF0550F482E037
:1018E000C82ED12CE12CF12C92E0492E512C612CE8
:1018F000712C9E012F5F3F4FB701A601C4010E94CA
:10190000870A882309F445C089819A81AB81BC810B
:10191000892B8A2B8B2B41F0260137019FEF491A27
:10192000590A690A790A05C0C414D504E604F70403
:1019300091F02D813E814F8158852F5F3F4F4F4F52
:101940005F4F2D833E834F8358873FEFC31AD30ADF
:10195000E30AF30AACCF0FEF1FEF2FEF3FE0B30125
:10196000A201C4010E94E709882399F0D5011696C7
:101970004D915D916D917C911997411551056105CE
:10198000710549F093018201C4010E94E7098111A8
:1019900002C080E02AC0D50116964D925D926D92EC
:1019A0007C921997332051F0D301C2010196A11DF9
:1019B000B11DF40180839183A283B383F5018789EC
:1019C000908DA18DB28D892B8A2B8B2B69F4D5013B
:1019D00057964D925D926D927C925A9714968C9187
:1019E0001497806814968C9381E02C960FB6F89427
:1019F000DEBF0FBECDBFDF91CF911F910F91FF9042
:101A0000EF90DF90CF90BF90AF909F908F907F909E
:101A10006F905F904F903F900895CF93DF93EC01CC
:101A20008D818823A1F18C8187FF2DC06E857F85F4
:101A30008889998941E00E949E09882341F1EA89B9
:101A400080E2E89FF0011124DF01AB56BC4F1097F4
:101A5000F1F08D81823050F44B895C896D897E89EB
:101A60005C964D935D936D937C935F978F89988D72
:101A7000A98DBA8DEB56FC4F938F828FB58BA48BBB
:101A80008C818F778C83DF91CF910C94630980E0F8
:101A9000DF91CF910895CF93DF93EC010E940D0D5C
:101AA000882311F01D8281E0DF91CF910895FC0120
:101AB000818D928D009711F00C940D0D08952F9249
:101AC0003F924F925F926F927F928F929F92AF92CE
:101AD000BF92CF92DF92EF92FF920F931F93CF931B
:101AE000DF9300D000D0CDB7DEB78C015B011A01C7
:101AF000DC0115968C9115978130C9F414968C9160
:101B000081FF15C082FF1BC0F80143895489658994
:101B1000768982859385A485B58584179507A60760
:101B2000B70769F0C8010E94740B811108C081E0F9
:101B300090E0F8019383828380E090E039C16101F5
:101B400083C0D8015B968D919C915C97FC012481A8
:101B500021502A013B0139E07694679457944794C9
:101B60003A95D1F7722E74207A01F1E0FF227720A6
:101B700009F476C080E092E08E199F0946018C1529
:101B80009D0508F44C01D8015B962D913C915C9722
:101B900016968D919D910D90BC91A02D0297A10953
:101BA000B109F901058404C0880F991FAA1FBB1F42
:101BB0000A94D2F74685578560897189840F951FED
:101BC000A61FB71F9C01AD01270D311D411D511DE1
:101BD00029013A01811432E0930609F088C080910E
:101BE000000190910101A0910201B09103018415BF
:101BF0009505A605B70559F48FEF9FEFDC0180939B
:101C0000000190930101A0930201B093030195019B
:101C1000B301A20180919505909196050E94F80864
:101C2000882309F484CF9EEFB91AC818D908F8019F
:101C300082859385A485B585880D991DA11DB11D4B
:101C400082879387A487B587D8011A964D915D91B5
:101C50006D917C911D97C114D10409F072CF87C09A
:101C6000E114F10409F086CF16964D915D916D91C6
:101C70007C911997411551056105710559F45796E5
:101C80008D919D910D90BC91A02D0097A105B1055E
:101C900041F521C09E012F5F3F4F0E94870A882394
:101CA00009F44BCF89819A81AB81BC81F801238DE6
:101CB000348DF9012789203129F048EF5FEF6FEF6C
:101CC0007FE004C048EF5FEF60E070E084179507A5
:101CD000A607B70730F0C8010E940A0C81114ACF4D
:101CE00026CFF80186839783A087B18743CFE1147D
:101CF000F10429F5D8011A964D915D916D917C9171
:101D00001D9753968D919D910D90BC91A02D4817D4
:101D100059076A077B0798F00E946309882309F432
:101D200006CF409200015092010160920201709230
:101D300003018091920381608093920308C041E087
:101D4000C301B2010E949E09882309F4F0CED50197
:101D5000F701EB56FC4FCF01880D991DE817F907E5
:101D600019F02D912193FACFA80CB91C5ECF539690
:101D70008D919D910D90BC91A02D84179507A6077C
:101D8000B70740F4F801438B548B658B768B8481C5
:101D900080688483D80114968C9183FD02C0C101B0
:101DA00007C0C8010E940D0D882309F4C0CEF7CFEB
:101DB0000F900F900F900F90DF91CF911F910F9187
:101DC000FF90EF90DF90CF90BF90AF909F908F905B
:101DD0007F906F905F904F903F902F900895CF939A
:101DE000DF931F92CDB7DEB7698341E050E0BE01BB
:101DF0006F5F7F4F0E945F0D0F90DF91CF9108952D
:101E0000FC01DB0112968D919C9113979383828341
:101E100083E491E09183808314968C91149784835A
:101E200015968C911597858316964D915D916D91C0
:101E30007C91199746835783608771871A964D91D5
:101E40005D916D917C911D9742875387648775875B
:101E50001E964D915D916D917C9151974687578764
:101E6000608B718B52968C915297828B53964D91C9
:101E70005D916D917C915697438B548B658B768BDE
:101E800057964D915D916D917C915A97478B508FEC
:101E9000618F728F5B968D919C915C97948F838FED
:101EA0000895CF93DF93EC016A8B809100019091AC
:101EB0000101A0910201B09103018E879F87A88B39
:101EC000B98B80E2689FF0011124EB56FC4F4489E6
:101ED000558960E070E0BA01552744274F8B588F31
:101EE000698F7A8F828D938DA0E0B0E0482B592BBB
:101EF0006A2B7B2B4F8B588F698F7A8F83858871E4
:101F000051F4848D958DA68DB78D8B8B9C8BAD8B6D
:101F1000BE8B81E00EC0803111F080E015C09E01C3
:101F20002D5E3F4F8B8D9C8D0E940B0B8823A9F358
:101F300084E08D8381E08C831E821F82188619863F
:101F40001A861B861C861D86DF91CF910895009707
:101F500069F0FC0101900020E9F73197AF01481BBF
:101F6000590BBC0187E995E00C94181380E090E0D0
:101F70000895CF93DF930E94A70FEC0184EC91E0CA
:101F80000E94A70F8C0F9D1FDF91CF9108958F9214
:101F90009F92AF92BF92CF92DF92EF92FF92CF9338
:101FA000DF93C82F83E496E0909396058093950580
:101FB000CC2369F1C53010F080E00DC140E060E055
:101FC00070E0CB010E949E098823B1F320E1C29FFB
:101FD000C00111248B579C4FFC01E254FE4F20811D
:101FE0002F7751F73C96408151816281738144364D
:101FF00051056105710500F33497C080D180E280FE
:10200000F380C114D104E104F10421F4D5CFC12C33
:10201000D12C760140E0C701B6010E949E098823B9
:1020200059F28091A0039091A1038115924021F66D
:10203000A091A503AA2309F4BFCF6091A3037091D7
:10204000A4036115710509F4B7CF2091A2032223DF
:1020500009F4B2CFA09361062093530680E030E0EC
:10206000E1E0F0E0C82FAF01082E02C0440F551F79
:102070000A94E2F72417350741F0982F8F5F9830C4
:1020800089F789E080935C0697CF80935C06209166
:10209000AB033091AC032115310519F040E050E05D
:1020A00008C02091B9033091BA034091BB0350910D
:1020B000BC03209354063093550640935606509324
:1020C000570646015701860E971EA11CB11C80922F
:1020D000620690926306A0926406B0926506E09153
:1020E000A603F091A703F0936806E0936706B0E0BB
:1020F0000E942319860E971EA81EB91E809269069B
:1021000090926A06A0926B06B0926C0685E0EE0F84
:10211000FF1F8A95E1F7E150FE4FEF2FFF27E6956D
:102120008E0E9F1EA11CB11C80925D0690925E06D1
:10213000A0925F06B09260062091A8033091A90397
:102140002115310521F0A90160E070E008C040913F
:10215000B5035091B6036091B7037091B803D701EE
:10216000C60188199909AA09BB09840F951FA61FE2
:10217000B71F04C0B695A79597958795CA95D2F7CE
:102180008093580690935906A0935A06B0935B0625
:10219000853F2FE09207A105B10510F48CE018C02F
:1021A000853F9F4FA105B10510F480E111C08091DA
:1021B000C1039091C203A091C303B091C403809363
:1021C000690690936A06A0936B06B0936C0680E252
:1021D0008093660681E0DF91CF91FF90EF90DF90D2
:1021E000CF90BF90AF909F908F90089590E0FC01AA
:1021F000EC54FF4F2491FC01E056FF4F849188235B
:1022000099F090E0880F991FFC01EA56FF4FA591C5
:10221000B491FC01E457FF4F859194918FB7F894E6
:10222000EC91E22BEC938FBF08953F924F925F9217
:102230006F927F928F929F92AF92BF92CF92DF92D6
:10224000EF92FF920F931F93CF93DF9300D01F92D3
:10225000CDB7DEB7F82E8091370690913806A09161
:102260003906B0913A06892B8A2B8B2BE9F00E9414
:102270001E070091AD061091AE062091AF06309179
:10228000B006DC01CB01801B910BA20BB30B0091BC
:102290003706109138062091390630913A0680179A
:1022A0009107A207B307B8F20E941E076093AD061C
:1022B0007093AE068093AF069093B006E0913F0610
:1022C000F0914006309759F040913B0650913C0602
:1022D00060913D0670913E068F2D0995F82E009174
:1022E0009303109194034F2C512C612C712C0115E8
:1022F000110509F461C0D8011C96EC901C978091DF
:102300003506909136068436910510F41C961C9281
:10231000D801ED91FC91A280B38019821A821B82B0
:10232000F11014C0F80145855685628173819E01C4
:102330002F5F3F4FC801F5010995D8011C96EC921B
:102340001C9714960D911C911597D1CFF8013996D1
:10235000CE0101966C0148019CE0890E911CDF01C1
:1023600013973C902191332001F12223F1F0822F29
:1023700090E0A0E0B0E09C01AD012F5F3F4F4F4FD8
:102380005F4FC301B2010E9496199B01AC01832DDE
:1023900090E0A0E0B0E0BC01CD016F5F7F4F8F4FB8
:1023A0009F4F0E949619D6018C93BFEFCB1ADB0A80
:1023B000E815F905A1F6B6CF8091AB069091AC0671
:1023C0008C010F5F1F4F1093AC060093AB0649972B
:1023D0009CF10E9443074B015C0188EE93E0089F4B
:1023E000B001099F700D189F700D1124072E000C6D
:1023F000880B990BC090A706D090A806E090A9067C
:10240000F090AA06A50194012C193D094E095F0917
:102410000E94651930933606209335061092AC065B
:102420001092AB060E9443076093A7067093A8061C
:102430008093A9069093AA060F900F900F90DF91BA
:10244000CF911F910F91FF90EF90DF90CF90BF90B1
:10245000AF909F908F907F906F905F904F903F9044
:102460000895AF92BF92CF92DF92EF92FF920F93B7
:102470001F93CF93DF93CDB7DEB72B970FB6F894AA
:10248000DEBF0FBECDBF7C01CE0101966C01FC0109
:1024900090E28BE08C0D91938E13FDCFDA0120E05A
:1024A00037E09D91992339F19E3219F0ECE7F0E085
:1024B0000AC03A3009F4AAC028E03AE0F2CF3196D7
:1024C000891709F4A3C084918111F9CF321708F458
:1024D0009DC08FED890F8E3508F098C081E0820F86
:1024E000F601E20FF11D2FE9290F2A3108F490526D
:1024F0009083282FD6CF8981803209F487C08B0141
:10250000FB01838D948DF701948F838FFB011682DD
:102510001782108611861286138614861586A12CC2
:10252000F80182859385A485B58543895489658999
:10253000768984179507A607B70708F067C025E0D6
:10254000B695A795979587952A95D1F7F82FFF709F
:10255000BF2EF8018581823008F458C0C8010E945E
:102560006E0497FD53C0F80182859385A485B585D7
:102570004F96A11DB11D82879387A487B587F0E28E
:10258000BF9EC0011124BC016B567C4F61157105C3
:10259000E9F1FB0120812223B9F1253EE1F04BE076
:1025A00050E0C6010E94D71B892B09F0B9CF6B2DD3
:1025B000C7012B960FB6F894DEBF0FBECDBFDF91DB
:1025C000CF911F910F91FF90EF90DF90CF90BF9030
:1025D000AF900C94510FA11014C0F701B28A409132
:1025E0000001509101016091020170910301468741
:1025F0005787608B718BFC01EB56FC4F80818823E1
:1026000029F0AA24A3948CCFAA2039F380E02B963A
:102610000FB6F894DEBF0FBECDBFDF91CF911F91F3
:102620000F91FF90EF90DF90CF90BF90AF90089503
:10263000CF92DF92EF92FF920F931F93CF93DF938E
:102640006C017A018B01C0E0D0E0CE15DF0589F086
:10265000D8016D918D01D601ED91FC910190F08131
:10266000E02DC6010995892B11F47E0102C0219647
:10267000ECCFC701DF91CF911F910F91FF90EF90A9
:10268000DF90CF900895CF93DF93CDB7DEB7C658D4
:10269000D1090FB6F894DEBF0FBECDBF789484B5D4
:1026A000826084BD84B5816084BD85B5826085BD4E
:1026B00085B5816085BD80916E00816080936E00DC
:1026C00010928100809181008260809381008091CE
:1026D000810081608093810080918000816080937F
:1026E00080008091B10084608093B1008091B0003F
:1026F00081608093B00080917A00846080937A003A
:1027000080917A00826080937A0080917A00816063
:1027100080937A0080917A00806880937A0010928A
:10272000C1008091F701811145C01092E90110921A
:10273000E8018FEF8093EC018093ED018093EE012F
:102740008093EF018093F0018093F10181E0809309
:10275000F2011092F4011092F3011092EB01109229
:10276000EA018091930390919403892B31F486EED2
:1027700091E09093940380939303E091E401F091AE
:10278000E501309721F086EE91E09583848386EE13
:1027900091E09093E5018093E4011092F60110928C
:1027A000F5018EE191E09093E7018093E60181E0ED
:1027B0008093F701E091E601F091E7010480F58153
:1027C000E02D86EE91E0099580E092E09093E9019A
:1027D0008093E80180E890E09093F4018093F30106
:1027E000E091E601F091E7010284F385E02D86EEA9
:1027F00091E00995009729F19C0140E050E060E4E8
:1028000072E48FE090E00E940419722F632F009110
:102810003706109138062091390630913A06872FF5
:10282000962FDA0180179107A207B30710F4D90198
:10283000C8018093370690933806A0933906B09369
:102840003A0681E080933406E091A705F091A8054F
:1028500082E08083E091A305F091A4051082E091CD
:10286000A505F091A6058FEC80831092AF05E0914D
:10287000AB05F091AC0586E08083E091A905F0916D
:10288000AA05808180618083E091A905F091AA0565
:10289000808188608083E091A905F091AA058081FC
:1028A00080688083E091A905F091AA0580818F7DE1
:1028B000808385E30E94F61010924E0610924C061B
:1028C00010924906109248068AE0809347060E94BB
:1028D00043078B01809147060E94F61061E08091CA
:1028E00047060E94D206FFB6F8948091FF0181113D
:1028F00024C0EAEAF0E08491EEEBF0E09491E82F56
:10290000F0E0EE0FFF1FEA56FF4FA591B491EC9156
:10291000E92321F461E08AE00E94D2068AE00E9465
:10292000F6108CB580618CBD8CB580648CBD8DE05B
:102930000E94F6108BE00E94F6108091FF018F5FDD
:102940008093FF01FFBE82E580934106109242060C
:1029500080914106909142060E94E9075AE0F52EC7
:102960008FEF0E94AA07FA94F110FACF83E496E061
:102970000E94EC0720E030E0A90160E083E496E0EB
:102980000E940208F82E80934D0631E0831749F02B
:102990000E944307601B710B613D774058F381E053
:1029A00056C02AEA31E040E050E068E083E496E077
:1029B0000E94020882FF03C0F0924E0610C044E05D
:1029C000F42E0E94B10780934D06FA94F110F9CFCE
:1029D0008A3A11F082E03BC082E080934E068091FB
:1029E0004E06823021F0C12CD12C760105C0C12CBD
:1029F000D12CE12C30E4F32E20E030E0A90167E394
:102A000083E496E00E940208A701960169E283E44C
:102A100096E00E94020880934D06882349F00E94A8
:102A20004307601B710B613D774030F388E00FC0B6
:102A300080914E06823001F520E030E0A9016AE382
:102A400083E496E00E940208882341F086E08093A8
:102A5000480683E496E00E949F0791C00E94B10758
:102A6000807C803C19F483E080934E060E94B1077D
:102A70000E94B1070E94B10783E496E00E949F077D
:102A800080E5809341061092420681E00E94C70FC4
:102A9000882329F080917206882341F070C080E07D
:102AA0000E94C70F882309F46AC0F4CF809166069C
:102AB000803109F582E080937206109284061092AC
:102AC000850610928606109287068091670690917F
:102AD0006806A0E0B0E025E0880F991FAA1FBB1F81
:102AE0002A95D1F78093800690938106A093820661
:102AF000B09383061EC0803209F041C083E080930A
:102B000072064091690650916A0660916B06709159
:102B10006C064093840650938506609386067093F6
:102B2000870620E836E08FE496E00E940B0B8823AE
:102B300031F18FE496E0909389068093880681E0D6
:102B400080937106109273061092740610927506A7
:102B500010927606109277061092780610927906F7
:102B600010927A0610927B0610927C0610927D06D7
:102B700010927E0610927F068FE691E002C088E8F0
:102B800091E00E94B90F5E0152E2A50EB11C8CE5E6
:102B900090E08C0F9D1F0C96CF57DF4F9983888351
:102BA000C158D0409AE0492E512C612C712C809153
:102BB0008203811148C269E070E080E090E00E94E9
:102BC000081B6C01009731F0DC011C9266EA71E091
:102BD0000E94F81B6DE676E0C5010E94000F1C8282
:102BE0001B8283E491E09A8389831E8276018E01A1
:102BF0000F5F1F4F15016FE270E0C7010E94ED1BD0
:102C0000F701009709F44AC040814F3249F4FFEFC1
:102C1000EF1AFF0A902F812F8101292E382E38C0FC
:102C20008E198D3008F08CE0882E912CA401B7010C
:102C3000CE01845A9F4F0E94FF1BECE5F0E0EC0FA1
:102C4000FD1FE80DF91D1082C8010E944B0DD8012F
:102C500015968C91882371F023961FAE1EAE239794
:102C600083E491E021969FAF8EAF219725961FAE0A
:102C7000259721C0AE01445A5F4FB101C8010E949F
:102C80003112882349F3E80CF91CC1010E944B0D55
:102C9000922D832D1801092F182FADCFEC19FD09A6
:102CA000C158DF4FF983E883CF57D040B101CE013F
:102CB000CF960E94000FC158DF4F08811981CF576E
:102CC000D0400C0D1D1DD8018C9181110AC0BE0190
:102CD000615C7F4FCE0101960E94000F4FEA51E0E8
:102CE00040C01DA21CA283E491E09BA38AA31FA263
:102CF00025968FAD2597811116C0A0961FAE1EAEEA
:102D0000A09788EE93E0A0E0B0E0A4968CAF9DAFD2
:102D1000AEAFBFAFA497E7961FAE1EAEE797A996DA
:102D20001FAEA99726C08250A801823040F46DE6FC
:102D300076E0C5010E94311281110DC0DECFBE01C7
:102D4000615C7F4FC5010E9431128823B1F2CE0130
:102D5000CF960E944B0DB501CE0101960E94000F47
:102D6000A801BE016F5F7F4FCE01845A9F4F0E9422
:102D70003904A0968EAD9FADA09790938F06809357
:102D80008E06A4968CAD9DADAEADBFADA4978093DD
:102D9000900690939106A0939206B0939306A896FE
:102DA0008CAD9DADAEADBFADA897809394069093CA
:102DB0009506A0939606B09397068DE0CF57DF4F08
:102DC000E881F981C158D040A8E9B6E001900D92A0
:102DD0008A95E1F7E7968EAD9FADE7979093A606AB
:102DE0008093A5060E944307EF966CAF7DAF8EAF30
:102DF0009FAFEF97E091A506F091A606309709F4F2
:102E00001BC18581882309F417C181EB91E00E94E1
:102E1000B90F8CE896E00E94780590938103809327
:102E200080038CE896E00E948F00892B09F445C04E
:102E30000E944307EB966CAF7DAF8EAF9FAFEB97D1
:102E400002E012E0E12CF12C80918003909181034B
:102E5000E816F906D8F48CE896E00E947805882EEA
:102E60008CE896E00E947805982E8CE896E00E9407
:102E70007805F8013297808231969082F80180833C
:102E8000FFEFEF1AFF0A0D5F1F4FDECF8091340670
:102E90000E9415110E944307DC01CB01EB962CAD7B
:102EA0003DAD4EAD5FADEB97821B930BA40BB50B05
:102EB0008897A105B10574F3B4CF0E944307AB0115
:102EC000BC0187EB91E0CB57DF4F4883C558D0401A
:102ED000CA57DF4F5883C658D040CD57DF4F68835D
:102EE000C358D040CC57DF4F7883C458D0400E949D
:102EF000A70FCB57DF4F4881C558D040CA57DF4F87
:102F00005881C658D040CD57DF4F6881C358D04054
:102F1000CC57DF4F7881C458D0409A01AB01EF966F
:102F20008CAD9DADAEADBFADEF97281B390B4A0BF5
:102F30005B0B57FF4EC0E0919705F091980501900B
:102F4000F081E02D6DE287E995E0CD57DF4F2883D2
:102F5000C358D040CC57DF4F3883C458D040CB57EC
:102F6000DF4F4883C558D040CA57DF4F5883C658F3
:102F7000D0400995CD57DF4F2881C358D040CC575A
:102F8000DF4F3881C458D040CB57DF4F4881C558F8
:102F9000D040CA57DF4F5881C658D0405095409511
:102FA000309521953F4F4F4F5F4F19A28E010F5D16
:102FB0001F4FCA01B901A30192010E946519605D0A
:102FC000D8016E938D01211531054105510589F711
:102FD00013C019A28E010F5D1F4FCA01B901A301D1
:102FE00092010E946519605DF80162938F012115BD
:102FF00031054105510589F7C8010E94A70F84ECEE
:1030000091E00E94A70F8091A5069091A6060097D7
:1030100061F00E944B0D8091A5069091A6060E943A
:10302000701A1092A6061092A506809134060E948E
:10303000151187EC91E002C08FEC91E00E94B90F6E
:10304000C6010E94701A87E995E00E94CE05181605
:1030500019060CF070C087E995E00E94AC05182FA6
:10306000E0919705F09198050190F081E02D682F8F
:1030700087E995E0099584EC91E00E94A70F1A304A
:1030800009F459C01D3009F456C0183721F481E005
:103090008093820350C0109282030E941E079B01FE
:1030A000AC0188EEC82E83E0D82EE12CF12CCD5750
:1030B000DF4F2883C358D040CC57DF4F3883C458E4
:1030C000D040CB57DF4F4883C558D040CA57DF4F59
:1030D0005883C658D0400E941E07CD57DF4F288125
:1030E000C358D040CC57DF4F3881C458D040CB575D
:1030F000DF4F4881C558D040CA57DF4F5881C65866
:10310000D040DC01CB01821B930BA40BB50B883E96
:103110009340A105B10548F0F1E0CF1AD108E108CC
:10312000F10828513C4F4F4F5F4FC114D104E104C7
:10313000F10409F0BCCF0E946E0639CDE7E9F5E055
:103140001382128288EE93E0A0E0B0E0848395833E
:10315000A683B78323E331E03183208325EC30E07D
:103160003587248724EC30E03787268720EC30E051
:10317000318B208B21EC30E0338B228B22EC30E042
:10318000358B248B26EC30E0378B268B118E128EFC
:10319000138E148EE4E3F6E02FEF20831282118267
:1031A000148613864FEF5FEFBA014783508761871C
:1031B0007287E1E4F6E020E520831182E3E4F6E0A3
:1031C000158216821186138642E050E060E070E0BE
:1031D000448755876687778713A215A614A623E42C
:1031E00031E033A722A717A6ECE8F6E0138212829B
:1031F00084839583A683B7838BE491E09183808356
:10320000128E118E14860895052E97FB1EF40094DD
:103210000E941B1957FD07D00E94651907FC03D0B7
:103220004EF40C941B1950954095309521953F4FC5
:103230004F4F5F4F089590958095709561957F4FA2
:103240008F4F9F4F08950E948719A59F900DB49F9F
:10325000900DA49F800D911D112408952F923F92EF
:103260004F925F926F927F928F929F92AF92BF9296
:10327000CF92DF92EF92FF920F931F93CF93DF9342
:10328000CDB7DEB7CA1BDB0B0FB6F894DEBF0FBE9F
:10329000CDBF09942A88398848885F846E847D84EC
:1032A0008C849B84AA84B984C884DF80EE80FD80EE
:1032B0000C811B81AA81B981CE0FD11D0FB6F89464
:1032C000DEBF0FBECDBFED010895A1E21A2EAA1BED
:1032D000BB1BFD010DC0AA1FBB1FEE1FFF1FA217C6
:1032E000B307E407F50720F0A21BB30BE40BF50BC3
:1032F000661F771F881F991F1A9469F7609570954C
:10330000809590959B01AC01BD01CF010895A29FCE
:10331000B001B39FC001A39F700D811D1124911DA9
:10332000B29F700D811D1124911D0895DB018F93B3
:103330009F930E942319BF91AF91A29F800D911D71
:10334000A39F900DB29F900D1124089597FB072E17
:1033500016F4009407D077FD09D00E94C11907FC2C
:1033600005D03EF4909581959F4F08957095619595
:103370007F4F08950E948719B7FF0895821B930B12
:103380000895AA1BBB1B51E107C0AA1FBB1FA617AC
:10339000B70710F0A61BB70B881F991F5A95A9F7FE
:1033A00080959095BC01CD010895EE0FFF1F05900B
:1033B000F491E02D0994CF93DF938230910510F4BE
:1033C00082E090E0E091B306F091B40620E030E0B6
:1033D000C0E0D0E0309711F1408151814817590782
:1033E000C0F04817590761F482819381209719F042
:1033F0009B838A832BC09093B4068093B30626C028
:103400002115310519F04217530718F49A01BE012E
:10341000DF01EF010280F381E02DDCCF21153105C2
:1034200009F1281B390B2430310590F412968D9147
:103430009C9113976115710521F0FB0193838283A1
:1034400004C09093B4068093B306FD01329644C045
:10345000FD01E20FF31F81939193225031092D93C7
:103460003C933AC02091B1063091B206232B41F42F
:1034700020910601309107013093B2062093B106E6
:1034800020910401309105012115310541F42DB73A
:103490003EB74091080150910901241B350BE09182
:1034A000B106F091B206E217F307A0F42E1B3F0B12
:1034B0002817390778F0AC014E5F5F4F24173507A6
:1034C00048F04E0F5F1F5093B2064093B1068193B0
:1034D000919302C0E0E0F0E0CF01DF91CF91089539
:1034E0000F931F93CF93DF93009709F48CC0FC01D7
:1034F0003297138212820091B3061091B40601151F
:10350000110581F420813181820F931F2091B10632
:103510003091B2062817390779F5F093B206E09397
:10352000B10671C0D80140E050E0AE17BF0750F4BB
:1035300012962D913C911397AD012115310509F19A
:10354000D901F3CF9D01DA01338322836081718138
:10355000860F971F8217930769F4EC012881398140
:10356000260F371F2E5F3F4F318320838A819B8137
:1035700093838283452B29F4F093B406E093B3063A
:1035800042C01396FC93EE931297ED014991599125
:103590009E01240F351FE217F30771F4808191819A
:1035A000840F951F029611969C938E93828193812E
:1035B00013969C938E931297E0E0F0E0D801129658
:1035C0008D919C911397009719F0F8018C01F6CF1B
:1035D0008D919C9198012E5F3F4F820F931F2091F8
:1035E000B1063091B2062817390769F4309729F4EB
:1035F0001092B4061092B30602C013821282109386
:10360000B2060093B106DF91CF911F910F910895FB
:10361000A0E0B0E0EEE0FBE10C943219EC01009781
:1036200021F4CB010E94DB19B8C0FC01E60FF71FA3
:103630009C0122503109E217F30708F4ACC0D9010C
:103640000D911C91119706171707B0F00530110561
:1036500008F49FC0C80104978617970708F499C01B
:1036600002501109061B170B019311936D937C9364
:10367000CF010E94701A8DC05B01A01AB10A4C01E3
:10368000800E911EA091B306B091B40640E050E0C8
:10369000E12CF12C109709F44AC0A815B905D1F511
:1036A0006D907C901197630182E0C80ED11CCA1402
:1036B000DB0480F1A3014A195B096A0182E0C80EAC
:1036C000D11C1296BC9012971396AC91B5E0CB1614
:1036D000D10440F0B282A38351834083D9016D931A
:1036E0007C930AC00E5F1F4FC301800F911FF90129
:1036F00091838083EB2DFA2FE114F10431F0D7018F
:103700001396FC93EE93129744C0F093B406E093A3
:10371000B3063FC08D919C9111974817590708F443
:10372000AC017D0112960D90BC91A02DB3CF80917C
:10373000B1069091B20688159905E1F4461757072E
:10374000C8F48091040190910501009741F48DB770
:103750009EB74091080150910901841B950BE81711
:10376000F907C8F4F093B206E093B106F90171834A
:1037700060830FC0CB010E94DB197C01009759F0D8
:10378000A801BE010E94E41BCE010E94701AC7016D
:1037900004C0CE0102C080E090E0CDB7DEB7EEE01D
:1037A0000C944E1981E090E0F8940C940E1CFB01EF
:1037B000DC0104C08D910190801921F441505040EA
:1037C000C8F7881B990B0895FB01DC0102C001902A
:1037D0000D9241505040D8F70895FC018191861711
:1037E00021F08823D9F7992708953197CF010895BB
:1037F000FB01DC0101900D920020E1F70895FB012F
:10380000DC014150504048F001900D920020C9F772
:1038100001C01D9241505040E0F70895F894FFCF49
:10382000FFFFFFFF0000B5068000000000007806E3
:1038300078067806A601A2019F01000000005C0145
:1038400018011601A601A2011301E6010000000003
:1038500000000005061813CE05AC05C0054C060097
:10386000000000EF0E181300000000B000CA018F26
:103870000078058205570D000000007806181378BF
:1038800006780678067806000000007806181353BC
:1038900044206361726420697320726561647920D9
:1038A000746F207573652E00534420636172642029
:1038B000696E697469616C697A6174696F6E20669A
:1038C00061696C6564006C6F6E672E747874002F8C
:1038D00000526561643A00546F74616C2074696DC4
:1038E000653A20000D0A0054484520454E440065C5
:1038F00072726F72206F70656E696E672074787473
:023900000000C5
:00000001FF
