:100000000C9465000C948D000C948D000C948D0064
:100010000C948D000C948D000C948D000C948D002C
:100020000C948D000C948D000C948D000C948D001C
:100030000C948D000C948D000C948D000C948D000C
:100040000C9479010C948D000C94A30B0C947D0BF3
:100050000C948D000C948D000C948D000C948D00EC
:100060000C948D000C948D0000000008000201002B
:100070000003040700000000000000000000000072
:10008000250028002B0000000000240027002A0083
:10009000040404040404040402020202020203032E
:1000A0000303030301020408102040800102040836
:1000B00010200102040810207C3C3E5E2B3D3F2FA7
:1000C0005B5D3B2C2A225C006B1211241FBECFEF1C
:1000D000D8E0DEBFCDBF24E0A2ECB1E001C01D92AC
:1000E000AE3DB207E1F711E0A0E0B1E0E0EEFAE2E8
:1000F00002C005900D92A23CB107D9F710E0C5E609
:10010000D0E004C02197FE010E943513C436D10708
:10011000C9F70E94EC0E0C946E150C940000FC01C3
:10012000918D828D981761F0828DDF01A80FB11D2E
:100130005D968C91928D9F5F9F73928F90E0089552
:100140008FEF9FEF0895FC01918D828D981731F00C
:10015000828DE80FF11D858D90E008958FEF9FEF60
:100160000895FC01918D228D892F90E0805C9F4F36
:10017000821B91098F739927089580E090E0892B65
:1001800029F00E940A0B81110C9400000895DC01F3
:100190005996ED91FC915A973097B9F083899489DB
:1001A000A589B6894285538564857585841B950B21
:1001B000A60BB70B811520E89207A105B10538F011
:1001C0008FEF9FE7A0E0B0E0089580E090E0089511
:1001D000CF93DF931F92CDB7DEB76983DC01ED913A
:1001E000FC910280F381E02D41E050E0BE016F5FA1
:1001F0007F4F09950F90DF91CF9108950E9432159E
:10020000FC01848DDF01A80FB11DA35ABF4F2C91B3
:10021000848D90E001968F739927848FA689B78982
:100220002C93A089B1898C9180648C93938D848D5B
:10023000981306C00288F389E02D80818F7D80832A
:10024000089590E0FC01E859FF4F3491FC01EC5512
:10025000FF4F2491FC01E057FF4FE491EE2309F496
:100260003BC0332339F1333091F038F43130A9F009
:10027000323001F584B58F7D12C0373091F03830BF
:10028000A1F03430B9F4809180008F7D03C080915B
:1002900080008F77809380000DC084B58F7784BDF8
:1002A00009C08091B0008F7703C08091B0008F7D2E
:1002B0008093B000F0E0EE0FFF1FE458FF4FA591D0
:1002C000B4918FB7F894EC91611103C020952E235F
:1002D00001C02E2B2C938FBF08952FB7F8946091F7
:1002E000CD017091CE018091CF019091D0012FBFAF
:1002F00008951F920F920FB60F9211242F933F93E0
:100300008F939F93AF93BF938091CD019091CE0136
:10031000A091CF01B091D0013091CC0123E0230F07
:100320002D3720F40196A11DB11D05C026E8230F2D
:100330000296A11DB11D2093CC018093CD01909315
:10034000CE01A093CF01B093D0018091C8019091CC
:10035000C901A091CA01B091CB010196A11DB11DA7
:100360008093C8019093C901A093CA01B093CB01B7
:10037000BF91AF919F918F913F912F910F900FBEA1
:100380000F901F9018958FB7F8948091C3018FBF7D
:10039000089561E0FC0184810E9421018091C201E5
:1003A00081111092C20108958EBD00000DB407FEA8
:1003B000FDCF8EB508958FEF0C94D4010F931F934A
:1003C000CF93DF93EB010E946D018B010E94DB0153
:1003D0008F3F49F00E946D01601B710B6C177D0708
:1003E000A8F380E001C081E0DF91CF911F910F91D0
:1003F0000895CF93DF93EC018E81882389F08F815C
:1004000098859C012F5F3F4F38872F838230924021
:1004100018F40E94DB01F3CFCE010E94C9011E82B5
:10042000DF91CF9108958CBD9DBD0895CF93DF934B
:10043000EC018091C201811109C081E08093C20169
:1004400080917404909175040E94130260E08C8185
:10045000DF91CF910C942101CF92DF92FF920F9305
:100460001F93CF93DF9300D000D0CDB7DEB76C01E0
:10047000F62E29833A834B835C830E94F901C601DF
:100480000E9416026CE271E0C6010E94DE018F2D0F
:1004900080640E94D40108E110E05C814B813A81C4
:1004A0002981DA01C901002E04C0B695A795979558
:1004B00087950A94D2F729833A834B835C830E9401
:1004C000D4010850110929813A814B815C81083F90
:1004D0008FEF180731F7FF2029F0E8E0FE1204C083
:1004E00087E803C085E901C08FEF0E94D40110E0C6
:1004F0000E94DB01F601828787FF04C01F3F11F0D5
:100500001F5FF6CF0F900F900F900F90DF91CF915C
:100510001F910F91FF90DF90CF900895AF92BF92FF
:10052000CF92DF92EF92FF920F931F93CF93DF93BF
:10053000EC016901C801820F931F8130924008F0DD
:1005400070C08E81882371F088819981AA81BB81D6
:10055000481759076A077B0729F48F819885C816C1
:10056000D906B0F5488359836A837B838B858330B2
:1005700039F089E0440F551F661F771F8A95D1F720
:100580009A01AB0161E1CE010E942C02882319F08F
:1005900083E08D8346C00E946D015B010E94DB01F8
:1005A0008A878F3F49F40E946D016A197B096D3279
:1005B0007140A0F38FE003C08E3F31F08DE08D835A
:1005C000CE010E94C9012DC018861F8281E08E8352
:1005D0008F8198858C159D0540F40E94DB018F81E9
:1005E0009885019698878F83F3CF6701E00EF11EFF
:1005F000CE14DF0431F00E94DB01F60181936F011C
:10060000F7CF8F819885080F191F18870F83898569
:10061000882319F00115124048F0CE010E94F9011B
:1006200005C0CE010E94C90180E001C081E0DF91D8
:10063000CF911F910F91FF90EF90DF90CF90BF90DF
:10064000AF900895EF92FF920F931F93CF93DF9394
:10065000EC017901411551056105710511F482E143
:100660003CC08B85833039F089E0440F551F661FED
:10067000771F8A95D1F79A01AB0168E1CE010E94FC
:100680002C02882311F084E028C08EEF0E94D40150
:1006900087018EEFF81AF80181918F010E94D40131
:1006A0000E151F05C1F78FEF0E94D4018FEF0E9436
:1006B000D4010E94DB018A878F71853031F081E19E
:1006C0008D83CE010E94C90109C068E572E0CE01A8
:1006D0000E94DE01811107C085E18D83CE010E9459
:1006E000C90180E013C020E030E0A9016DE0CE0137
:1006F0000E942C02811104C00E94DB01882311F0AA
:1007000084E1EBCFCE010E94C90181E0DF91CF915E
:100710001F910F91FF90EF9008958091D60188234B
:10072000A9F1409100015091010160910201709185
:10073000030127ED31E08091D4019091D5010E9411
:100740002203811102C080E008954091C4015091BC
:10075000C5016091C6017091C70141155105610540
:10076000710591F027ED31E08091D4019091D50190
:100770000E942203882339F31092C4011092C5010C
:100780001092C6011092C7011092D60181E008951F
:100790008F929F92AF92BF92EF92FF920F931F930F
:1007A000CF934B015C01C42F809100019091010116
:1007B000A0910201B091030188159905AA05BB0516
:1007C00001F10E948D03811102C080E020C087EDFD
:1007D000E82E81E0F82E00E012E020E030E0B501E4
:1007E000A4018091D4019091D5010E948E028823AA
:1007F00061F38092000190920101A0920201B092F7
:1008000003018091D601C82BC093D60181E0CF911E
:100810001F910F91FF90EF90BF90AF909F908F909E
:1008200008954F925F926F927F928F929F92AF92B4
:10083000BF92CF92DF92EF92FF920F931F93CF93CD
:10084000DF93EC016A017B01280139014230510537
:100850006105710510F480E073C089859A85AB85C8
:10086000BC850196A11DB11D84179507A607B70782
:1008700090F38B889C88AD88BE888F89803129F45D
:10088000BB27AF2D9E2D8D2D09C0DB01CA0147E08E
:10089000B695A795979587954A95D1F7880E991E95
:1008A000AA1EBB1E8091000190910101A09102013E
:1008B000B091030188169906AA06BB0679F48F89C0
:1008C0008031A1F4DD24EE24FF24C601880F991F96
:1008D000FC01E952FE4F5182408219C040E0C5013F
:1008E000B4010E94C8038111EACFB5CFE894C7F8DC
:1008F000DD24EE24FF24C601880F991F880F991F5D
:10090000FC01E952FE4F40825182628273828091E3
:10091000D60181608093D6018A89823080F08D81F2
:100920009E81AF81B885880E991EAA1EBB1E80923B
:10093000C4019092C501A092C601B092C70181E0A6
:10094000DF91CF911F910F91FF90EF90DF90CF90AB
:10095000BF90AF909F908F907F906F905F904F90DF
:1009600008958F929F92AF92BF92CF92DF92EF92B3
:10097000FF920F931F93CF93DF93FC0181859285A4
:10098000A385B4850196A11DB11D84179507A607FF
:10099000B70710F480E05CC083899489A589B68983
:1009A000C789C03129F4852E962EA72EBB2409C0F5
:1009B0004A015B01C7E0B694A79497948794CA95BF
:1009C000D1F7E9016A017B018F01BC01CD01680DFE
:1009D000791D8A1D9B1D8090000190900101A090BF
:1009E0000201B0900301681579058A059B0599F409
:1009F000F80187898031A9F4B701A6015527662738
:100A00007727440F551FFA01E952FE4F80819181EB
:100A1000A0E0B0E018C040E00E94C8038111E8CF18
:100A2000B9CFB701A6014F77552766277727440F1F
:100A3000551F440F551FFA01E952FE4F80819181E5
:100A4000A281B381BF7088839983AA83BB8381E02D
:100A5000DF91CF911F910F91FF90EF90DF90CF909A
:100A6000BF90AF909F908F9008954F925F926F923A
:100A70007F92AF92BF92CF92DF92EF92FF920F934D
:100A80001F93CF93DF9300D000D0CDB7DEB78C019A
:100A900049835A836B837C835901C12CD12C760105
:100AA000412C82E0582E612C712C49815A816B8136
:100AB0007C819E012F5F3F4FC8010E94B1048823B3
:100AC00051F1D301C201F801058404C0880F991FB8
:100AD000AA1FBB1F0A94D2F7C80ED91EEA1EFB1E1E
:100AE00049815A816B817C818789803129F088EF27
:100AF0009FEFAFEFBFE004C088EF9FEFA0E0B0E052
:100B0000481759076A077B0780F2F501C082D18236
:100B1000E282F38281E00F900F900F900F90DF91AF
:100B2000CF911F910F91FF90EF90DF90CF90BF90EA
:100B3000AF907F906F905F904F9008958F929F92AB
:100B4000AF92BF92CF92DF92EF92FF920F931F93DB
:100B5000CF93DF93EC018D81811102C080E077C0DB
:100B60000B891C892D893E8904171507260737072D
:100B7000A8F36A017B01823029F4CA86DB86EC8601
:100B8000FD860DC0C114D104E104F10451F41E82AC
:100B90001F82188619861A861B861C861D8681E090
:100BA00056C08A849B84AC84BD84EB8DFC8D2585E6
:100BB00030E0275F3F4FB501A40141505109610961
:100BC0007109022E04C076956795579547950A944A
:100BD000D2F7D701C6010197A109B10904C0B695A2
:100BE000A795979587952A95D2F784179507A60715
:100BF000B70720F089288A288B2849F44F89588D17
:100C0000698D7A8D4E835F836887798704C0841BE2
:100C1000950BA60BB70B4C015D018E010A5F1F4FB0
:100C200081149104A104B10409F4A7CF4E815F811E
:100C30006885798598018B8D9C8D0E94B10491E027
:100C4000891A9108A108B1088111EACF87CFDF91F5
:100C5000CF911F910F91FF90EF90DF90CF90BF90B9
:100C6000AF909F908F9008953F924F925F926F92B6
:100C70007F928F929F92AF92BF92CF92DF92EF922C
:100C8000FF920F931F93CF93DF93CDB7DEB72C97CF
:100C90000FB6F894DEBF0FBECDBF5C01DC015B96E2
:100CA0008D909C905C971696CD90DD90ED90FC9089
:100CB0001997C114D104E104F10439F0BFEFCB1A44
:100CC000DB0AEB0AFB0A312C07C0F401C080D1809B
:100CD000E280F38033243394F40181859285A385E7
:100CE000B4859C01AD012F5F3F4F4F4F5F4F298768
:100CF0003A874B875C87260137011D821E821F823F
:100D00001886F40181859285A385B4852D813E8165
:100D10004F815885281739074A075B0708F063C0D9
:100D200089859A85AB85BC858C159D05AE05BF056B
:100D300050F482E0C82ED12CE12CF12C92E0492E07
:100D4000512C612C712C9E012F5F3F4FB701A601E2
:100D5000C4010E94B104882309F445C089819A81A5
:100D6000AB81BC81892B8A2B8B2B41F0260137016B
:100D70009FEF491A590A690A790A05C0C414D504B3
:100D8000E604F70491F02D813E814F8158852F5F55
:100D90003F4F4F4F5F4F2D833E834F8358873FEF29
:100DA000C31AD30AE30AF30AACCF0FEF1FEF2FEFFA
:100DB0003FE0B301A201C4010E941104882399F00D
:100DC000D50116964D915D916D917C9119974115C4
:100DD00051056105710549F093018201C4010E942A
:100DE0001104811102C080E02AC0D50116964D92EF
:100DF0005D926D927C921997332051F0D301C2011C
:100E00000196A11DB11DF40180839183A283B38358
:100E1000F5018789908DA18DB28D892B8A2B8B2B23
:100E200069F4D50157964D925D926D927C925A97D6
:100E300014968C911497806814968C9381E02C966C
:100E40000FB6F894DEBF0FBECDBFDF91CF911F91DB
:100E50000F91FF90EF90DF90CF90BF90AF909F9059
:100E60008F907F906F905F904F903F900895CF93B9
:100E7000DF93EC018D818823A1F18C8187FF2DC048
:100E80006E857F858889998941E00E94C8038823FF
:100E900041F1EA8980E2E89FF0011124DF01A952C3
:100EA000BE4F1097F1F08D81823050F44B895C89F0
:100EB0006D897E895C964D935D936D937C935F976E
:100EC0008F89988DA98DBA8DE952FE4F938F828FAD
:100ED000B58BA48B8C818F778C83DF91CF910C9411
:100EE0008D0380E0DF91CF910895CF93DF93EC01E4
:100EF0000E943707882311F01D8281E0DF91CF9196
:100F00000895FC01818D928D009711F00C943707A4
:100F100008952F923F924F925F926F927F928F929D
:100F20009F92AF92BF92CF92DF92EF92FF920F9378
:100F30001F93CF93DF9300D000D0CDB7DEB78C01E5
:100F40005B011A01DC0115968C9115978130C9F46B
:100F500014968C9181FF15C082FF1BC0F801438954
:100F600054896589768982859385A485B58584179A
:100F70009507A607B70769F0C8010E949E05811171
:100F800008C081E090E0F8019383828380E090E0E4
:100F900039C1610183C0D8015B968D919C915C97AA
:100FA000FC01248121502A013B0139E076946794A9
:100FB000579447943A95D1F7722E74207A01F1E054
:100FC000FF22772009F476C080E092E08E199F0915
:100FD00046018C159D0508F44C01D8015B962D91B6
:100FE0003C915C9716968D919D910D90BC91A02D92
:100FF0000297A109B109F901058404C0880F991F5E
:10100000AA1FBB1F0A94D2F746855785608971894C
:10101000840F951FA61FB71F9C01AD01270D311D21
:10102000411D511D29013A01811432E0930609F056
:1010300088C08091000190910101A0910201B091BE
:10104000030184159505A605B70559F48FEF9FEFA9
:10105000DC018093000190930101A0930201B09301
:1010600003019501B301A2018091D4019091D501B2
:101070000E942203882309F484CF9EEFB91AC8186E
:10108000D908F80182859385A485B585880D991DB9
:10109000A11DB11D82879387A487B587D8011A96B1
:1010A0004D915D916D917C911D97C114D10409F012
:1010B00072CF87C0E114F10409F086CF16964D91E6
:1010C0005D916D917C9119974115510561057105EF
:1010D00059F457968D919D910D90BC91A02D00973C
:1010E000A105B10541F521C09E012F5F3F4F0E9430
:1010F000B104882309F44BCF89819A81AB81BC81EB
:10110000F801238D348DF9012789203129F048EF2A
:101110005FEF6FEF7FE004C048EF5FEF60E070E0EB
:1011200084179507A607B70730F0C8010E94340658
:1011300081114ACF26CFF80186839783A087B18794
:1011400043CFE114F10429F5D8011A964D915D9130
:101150006D917C911D9753968D919D910D90BC91B1
:10116000A02D481759076A077B0798F00E948D0346
:10117000882309F406CF4092000150920101609249
:101180000201709203018091D60181608093D601A3
:1011900008C041E0C301B2010E94C803882309F4DA
:1011A000F0CED501F701E952FE4FCF01880D991D10
:1011B000E817F90719F02D912193FACFA80CB91C63
:1011C0005ECF53968D919D910D90BC91A02D84176B
:1011D0009507A607B70740F4F801438B548B658B3E
:1011E000768B848180688483D80114968C9183FDEA
:1011F00002C0C10107C0C8010E943707882309F453
:10120000C0CEF7CF0F900F900F900F90DF91CF913E
:101210001F910F91FF90EF90DF90CF90BF90AF9014
:101220009F908F907F906F905F904F903F902F9006
:101230000895CF93DF931F92CDB7DEB7698341E066
:1012400050E0BE016F5F7F4F0E9489070F90DF91D2
:10125000CF910895CF93DF93EC01898D9A8D0097FC
:1012600039F481E090E09B838A8380E090E00BC0BA
:10127000FC01138212820E948907E98DFA8D228176
:101280003381232B71F7DF91CF910895FC01DB01AE
:1012900012968D919C9113979383828380E291E0C3
:1012A0009183808314968C911497848315968C91E6
:1012B0001597858316964D915D916D917C91199747
:1012C00046835783608771871A964D915D916D9122
:1012D0007C911D9742875387648775871E964D9131
:1012E0005D916D917C91519746875787608B718B8B
:1012F00052968C915297828B53964D915D916D9140
:101300007C915697438B548B658B768B57964D917A
:101310005D916D917C915A97478B508F618F728F41
:101320005B968D919C915C97948F838F0895EF923B
:10133000FF920F931F93CF93DF93EC017B018A0100
:101340001B821A8288EE93E0A0E0B0E08C839D833C
:10135000AE83BF8388E291E0998388838DE190E03A
:101360000E943B139A8F898F009779F02DE1F70146
:10137000DC0101900D922A95E1F74CE050E0B801B4
:10138000CE010C960E945F15188EDF91CF911F91B0
:101390000F91FF90EF9008952F923F924F925F929E
:1013A0006F927F928F929F92AF92BF92CF92DF9275
:1013B000EF92FF920F931F93CF93DF9300D0CDB79F
:1013C000DEB7FC018581882309F4D9C0848180FFC0
:1013D000D6C021E02A83438954896589768982852C
:1013E0009385A485B585481759076A077B0709F4D3
:1013F0001A826F013A81832F90E0DE0111964D0130
:101400003F01B6E06B0E711C892B09F47DC0D6013B
:101410001A964D915D916D917C911D975A01B1E0A5
:10142000BB22F60125811A012B0189E056944794CD
:10143000379427948A95D1F7838D948D223061F467
:10144000FC01828D938DA48DB58DBC01CD01620D03
:10145000731D841D951D45C0DC0114961C9111500F
:101460001221A114B104D1F4111118C0452B462B3F
:10147000472B51F4F6018789908DA18DB28D86831B
:101480009783A087B1870AC046815781608571859F
:1014900093010E94B104882309F471C0F601238DE1
:1014A000348D86819781A085B1850297A109B10904
:1014B000AC01BD01F901058404C0440F551F661F2E
:1014C000771F0A94D2F786859785A089B189840F02
:1014D000951FA61FB71FBC01CD01610F711D811D96
:1014E000911DD60114962C9126FF14C00091000185
:1014F00010910101209102013091030160177107E1
:101500008207930751F506C0FA81FF23C1F1898153
:1015100090E037C040E00E94C803882381F1F501C4
:10152000E952FE4FD401CF010196E817F90719F0EF
:1015300021912D93FACFEFEF8E1A9E0AF601828544
:101540009385A485B5850196A11DB11D82879387DA
:10155000A487B58780E090E057CF740101E010E0E8
:101560009501AB01BC018091D4019091D5010E94FD
:101570008E02882321F0BFEF8B1A9B0ADFCF8FEFFB
:101580009FEF0F900F90DF91CF911F910F91FF90E0
:10159000EF90DF90CF90BF90AF909F908F907F9013
:1015A0006F905F904F903F902F900895FC01818D38
:1015B000928D009711F00C94CC098FEF9FEF089556
:1015C0000F931F93CF93DF93FC01818D928D009732
:1015D000B9F0EF010E94CC098C010F3F8FEF180783
:1015E00091F0898D9A8DFC014285538564857585BE
:1015F00041505109610971090E949E05C80105C049
:1016000080E090E002C08FEF9FEFDF91CF911F91BC
:101610000F91089587ED93E00E94B10021E0892B9E
:1016200009F420E0822F0895EF92FF920F931F9309
:10163000CF93DF93EC0181E0888F9B8D8C8D981385
:1016400005C0E889F989808185FD24C0F62E0B8DBF
:1016500010E00F5F1F4F0F731127E02E8C8DE812E3
:101660000CC00FB607FCFACFE889F989808185FFA5
:10167000F5CFCE010E940001F1CF8B8DFE01E80F66
:10168000F11DE35AFF4FF0820B8FEA89FB898081BD
:10169000806207C0EE89FF896083E889F9898081CB
:1016A0008064808381E090E0DF91CF911F910F9162
:1016B000FF90EF900895CF93DF93EC01888D8823FE
:1016C000C9F0EA89FB89808185FD05C0A889B989AF
:1016D0008C9186FD0FC00FB607FCF5CF808185FF8A
:1016E000F2CFA889B9898C9185FFEDCFCE010E94F8
:1016F0000001E7CFDF91CF9108951F920F920FB6AF
:101700000F9211242F933F934F935F936F937F9387
:101710008F939F93AF93BF93EF93FF9387ED93E0E6
:101720000E940001FF91EF91BF91AF919F918F9126
:101730007F916F915F914F913F912F910F900FBECD
:101740000F901F9018951F920F920FB60F921124B1
:101750002F938F939F93EF93FF93E091E703F09183
:10176000E8038081E091ED03F091EE0382FD12C069
:1017700090818091F0038F5F8F732091F103821726
:1017800051F0E091F003F0E0E952FC4F958F809327
:10179000F00301C08081FF91EF919F918F912F9174
:1017A0000F900FBE0F901F901895CF92DF92EF927F
:1017B000FF920F931F93CF93DF936C017A018B01FC
:1017C000C0E0D0E0CE15DF0589F0D8016D918D0124
:1017D000D601ED91FC910190F081E02DC6010995B3
:1017E000892B11F47E0102C02196ECCFC701DF9155
:1017F000CF911F910F91FF90EF90DF90CF900895C0
:10180000CF93DF93EC016A8B8091000190910101ED
:10181000A0910201B09103018E879F87A88BB98B9D
:1018200080E2689FF0011124E952FE4F44895589F6
:1018300060E070E0BA01552744274F8B588F698FBD
:101840007A8F828D938DA0E0B0E0482B592B6A2BC4
:101850007B2B4F8B588F698F7A8F8385887151F4DA
:10186000848D958DA68DB78D8B8B9C8BAD8BBE8B10
:1018700081E00EC0803111F080E015C09E012D5E28
:101880003F4F8B8D9C8D0E9435058823A9F384E002
:101890008D8381E08C831E821F82188619861A86AA
:1018A0001B861C861D86DF91CF910895AF92BF9253
:1018B000CF92DF92EF92FF920F931F93CF93DF931C
:1018C000CDB7DEB72B970FB6F894DEBF0FBECDBFF6
:1018D0007C01CE0101966C01FC0190E28BE08C0D45
:1018E00091938E13FDCFDA0120E037E09D9199238B
:1018F00039F19E3219F0E8EBF0E00AC03A3009F411
:10190000AAC028E03AE0F2CF3196891709F4A3C0C3
:1019100084918111F9CF321708F49DC08FED890FA2
:101920008E3508F098C081E0820FF601E20FF11DBC
:101930002FE9290F2A3108F490529083282FD6CF0F
:101940008981803209F487C08B01FB01838D948DDE
:10195000F701948F838FFB01168217821086118600
:101960001286138614861586A12CF801828593852C
:10197000A485B58543895489658976898417950737
:10198000A607B70708F067C025E0B695A795979515
:1019900087952A95D1F7F82FFF70BF2EF801858122
:1019A000823008F458C0C8010E94CC0997FD53C08A
:1019B000F80182859385A485B5854F96A11DB11D3B
:1019C00082879387A487B587F0E2BF9EC001112468
:1019D000BC0169527E4F61157105E9F1FB0120815F
:1019E0002223B9F1253EE1F04BE050E0C6010E9410
:1019F0003715892B09F0B9CF6B2DC7012B960FB680
:101A0000F894DEBF0FBECDBFDF91CF911F910F9134
:101A1000FF90EF90DF90CF90BF90AF900C94000CB0
:101A2000A11014C0F701B28A409100015091010148
:101A3000609102017091030146875787608B718B1B
:101A4000FC01E952FE4F8081882329F0AA24A39447
:101A50008CCFAA2039F380E02B960FB6F894DEBF26
:101A60000FBECDBFDF91CF911F910F91FF90EF90EF
:101A7000DF90CF90BF90AF900895009769F0FC0180
:101A800001900020E9F73197AF01481B590BBC01C9
:101A900087ED93E00C94D50B80E090E00895CF9310
:101AA000DF930E943D0DEC0183E891E00E943D0D23
:101AB0008C0F9D1FDF91CF9108958F929F92AF92CF
:101AC000BF920F931F93CF93DF93CDB7DEB7A1974C
:101AD0000FB6F894DEBF0FBECDBF19A2423008F496
:101AE0004AE08E010F5D1F4F842E912CA12CB12C4A
:101AF000A50194010E941313E62FB901CA010150F8
:101B00001109EA3014F4E05D01C0E95CD801EC93FE
:101B1000232B242B252B61F7C8010E943D0DA19694
:101B20000FB6F894DEBF0FBECDBFDF91CF911F91EE
:101B30000F91BF90AF909F908F9008958F929F923A
:101B4000AF92BF92CF92DF92EF92FF92CF93DF934B
:101B5000C82F86E794E09093D5018093D401CC23DD
:101B600069F1C53010F080E00DC140E060E070E048
:101B7000CB010E94C8038823B1F320E1C29FC001BA
:101B8000112489539E4FFC01E254FE4F20812F7790
:101B900051F73C96408151816281738144365105F1
:101BA0006105710500F33497C080D180E280F38035
:101BB000C114D104E104F10421F4D5CFC12CD12CFE
:101BC000760140E0C701B6010E94C803882359F29C
:101BD0008091E2019091E3018115924021F6A0915C
:101BE000E701AA2309F4BFCF6091E5017091E601F6
:101BF0006115710509F4B7CF2091E401222309F49E
:101C0000B2CFA09394042093860480E030E0E1E01A
:101C1000F0E0C82FAF01082E02C0440F551F0A94F0
:101C2000E2F72417350741F0982F8F5F983089F736
:101C300089E080938F0497CF80938F042091ED01EA
:101C40003091EE012115310519F040E050E008C057
:101C50002091FB013091FC014091FD015091FE016A
:101C600020938704309388044093890450938A0416
:101C700046015701860E971EA11CB11C8092950447
:101C800090929604A0929704B0929804E091E80193
:101C9000F091E901F0939B04E0939A04B0E00E9474
:101CA000C212860E971EA81EB91E80929C049092A6
:101CB0009D04A0929E04B0929F0485E0EE0FFF1F4A
:101CC0008A95E1F7E150FE4FEF2FFF27E6958E0E44
:101CD0009F1EA11CB11C8092900490929104A0922E
:101CE0009204B09293042091EA013091EB01211506
:101CF000310521F0A90160E070E008C04091F701D2
:101D00005091F8016091F9017091FA01D701C60173
:101D100088199909AA09BB09840F951FA61FB71F27
:101D200004C0B695A79597958795CA95D2F78093E5
:101D30008B0490938C04A0938D04B0938E04853F04
:101D40002FE09207A105B10510F48CE018C0853F83
:101D50009F4FA105B10510F480E111C080910302ED
:101D600090910402A0910502B091060280939C0418
:101D700090939D04A0939E04B0939F0480E280936F
:101D8000990481E0DF91CF91FF90EF90DF90CF90A9
:101D9000BF90AF909F908F90089590E0FC01EC551C
:101DA000FF4F2491FC01E057FF4F8491882399F065
:101DB00090E0880F991FFC01EA57FF4FA591B4915D
:101DC000FC01E458FF4F859194918FB7F894EC9102
:101DD000E22BEC938FBF0895CF93DF93CDB7DEB79F
:101DE000C257D1090FB6F894DEBF0FBECDBF7894AD
:101DF00084B5826084BD84B5816084BD85B5826010
:101E000085BD85B5816085BD80916E0081608093C0
:101E10006E00109281008091810082608093810029
:101E20008091810081608093810080918000816039
:101E3000809380008091B10084608093B100809194
:101E4000B00081608093B00080917A0084608093BC
:101E50007A0080917A00826080937A0080917A0083
:101E6000816080937A0080917A00806880937A0004
:101E70001092C100E091E703F091E80382E08083D3
:101E8000E091E303F091E4031082E091E503F09127
:101E9000E6038FEC80831092EF03E091EB03F09167
:101EA000EC0386E08083E091E903F091EA0380810E
:101EB00080618083E091E903F091EA03808188608A
:101EC0008083E091E903F091EA0380818068808358
:101ED000E091E903F091EA0380818F7D808385E3BF
:101EE0000E94CD0E1092810410927F0410927C0407
:101EF00010927B048AE080937A040E946D017B013A
:101F000080917A040E94CD0E61E080917A040E9453
:101F10002101DFB6F8948091D101811124C0EAE952
:101F2000F0E08491EEEAF0E09491E82FF0E0EE0F1B
:101F3000FF1FEA57FF4FA591B491EC91E92321F4DB
:101F400061E08AE00E9421018AE00E94CD0E8CB5FA
:101F500080618CBD8CB580648CBD8DE00E94CD0EFF
:101F60008BE00E94CD0E8091D1018F5F8093D101D3
:101F7000DFBE82E58093740410927504809174042E
:101F8000909175040E9413025AE0D52E8FEF0E94A3
:101F9000D401DA94D110FACF86E794E00E941602B9
:101FA00020E030E0A90160E086E794E00E942C0286
:101FB000D82E8093800491E0891749F00E946D012A
:101FC0006E197F09613D774058F381E056C02AEAD7
:101FD00031E040E050E068E086E794E00E942C02A7
:101FE00082FF03C0D092810410C044E0D42E0E942E
:101FF000DB0180938004DA94D110F9CF8A3A11F092
:1020000082E03BC082E08093810480918104823031
:1020100021F0812C912C540105C0812C912CA12CF4
:1020200030E4B32E20E030E0A90167E386E794E0D6
:102030000E942C02A501940169E286E794E00E94C7
:102040002C0280938004882349F00E946D016E1950
:102050007F09613D774030F388E00FC080918104B3
:10206000823001F520E030E0A9016AE386E794E0E0
:102070000E942C02882341F086E080937B0486E74F
:1020800094E00E94C90120C20E94DB01807C803C58
:1020900019F483E0809381040E94DB010E94DB013C
:1020A0000E94DB0186E794E00E94C90180E58093ED
:1020B00074041092750481E00E949E0D882329F01B
:1020C0008091A504882341F0FFC180E00E949E0D0D
:1020D000882309F4F9C1F4CF80919904803109F57E
:1020E00082E08093A5041092B7041092B804109275
:1020F000B9041092BA0480919A0490919B04A0E0D4
:10210000B0E025E0880F991FAA1FBB1F2A95D1F7C1
:102110008093B3049093B404A093B504B093B60431
:102120001FC0803209F0D0C183E08093A5044091A4
:102130009C0450919D0460919E0470919F04409373
:10214000B7045093B8046093B9047093BA0423EBB6
:1021500034E082E894E00E943505882309F4B4C194
:1021600082E894E09093BC048093BB0481E0809368
:10217000A4041092A6041092A7041092A80410922E
:10218000A9041092AA041092AB041092AC0410920D
:10219000AD041092AE041092AF041092B0041092ED
:1021A000B1041092B2048CE491E00E944F0D6DE0F6
:1021B00070E080E090E00E9468145C01009731F0CC
:1021C000FC01108265E671E00E9458154E01FEE1A7
:1021D0008F0E911C60EA74E0C4010E9446091C82C3
:1021E0001B8280E291E09A8389831E823501CE01B1
:1021F00001967C0124011C016FE270E0C3010E9482
:102200004D15009709F441C0F30120812F3221F4CC
:10221000FFEF6F1A7F0AF0CF86198D3008F08CE03F
:10222000C82ED12CA601B301CE01885A9F4F0E941F
:102230005F15E8E5F0E0EC0FFD1FEC0DFD1D1082D1
:10224000C7010E947507F7018581882351F01EAEF2
:102250001DAE80E291E09CAF8BAF21961FAE21971F
:102260001CC0AE01485A5F4FB201C7010E94560C14
:10227000882369F36C0C7D1CC2010E947507942DA4
:10228000852D2701E92EF82EB7CF83010A191B09E6
:10229000B201CE01CB960E9446090A0D1B1DF80122
:1022A0008081811109C0BE01655C7F4FC1010E9420
:1022B000460942E751E03FC019A218A280E291E02E
:1022C0009F8F8E8F1BA221968FAD2197811116C0F3
:1022D0006C961FAE1EAE6C9788EE93E0A0E0B0E067
:1022E000A0968CAF9DAFAEAFBFAFA097E3961FAEE9
:1022F0001EAEE397A5961FAEA59723C08250A801F6
:10230000823040F460EA74E0C4010E94560C8111EE
:102310000DC0DECFBE01655C7F4FC4010E94560C2C
:102320008823B1F2CE01CB960E947507B401C1019A
:102330000E944609A801B101CE01885A9F4F0E9410
:1023400097096C968EAD9FAD6C979093C204809365
:10235000C104A0968CAD9DADAEADBFADA0978093EE
:10236000C3049093C404A093C504B093C604A49678
:102370008CAD9DADAEADBFADA4978093C7049093D7
:10238000C804A093C904B093CA048DE0E8E5F0E066
:10239000EC0FFD1F3C96ABECB4E001900D928A95DA
:1023A000E1F7E396EEADFFADE397F093D904E09348
:1023B000D804309709F480C08581882309F47CC053
:1023C00084E791E00E944F0D8FEB94E00E94D60AC3
:1023D0009093D3018093D2018AE791E00E943D0D52
:1023E0006091D2017091D30180E090E04AE00E94B8
:1023F0005D0D83E891E00E943D0D8FEB94E00E941B
:10240000C700892B09F445C00E946D012B013C01D6
:1024100000E010E08091D2019091D30108171907D4
:1024200078F48FEB94E00E94D60A8FEB94E00E9440
:10243000D60A8FEB94E00E94D60A0F5F1F4FEACFB7
:102440000E946D016B017C01C418D508E608F708ED
:1024500083E891E00E943D0D86E891E00E943D0DE9
:10246000F7FE13C0E091D703F091D8030190F081FB
:10247000E02D6DE287ED93E0099566277727CB0184
:102480006C197D098E099F09B1CF4AE0C701B601D9
:10249000AECF8091D8049091D904009789F00E9422
:1024A00075078091D8049091D9040E94D01310929E
:1024B000D9041092D80404C08DE891E00E944F0D19
:1024C000C5010E94D01304C084EA91E00E944F0D20
:1024D0000E94BD00FDCFE7EDF3E01382128288EE8B
:1024E00093E0A0E0B0E084839583A683B78320E1E6
:1024F00031E03183208325EC30E03587248724ECDC
:1025000030E03787268720EC30E0318B208B21ECC0
:1025100030E0338B228B22EC30E0358B248B26ECA1
:1025200030E0378B268B118E128E138E148EE4E7DB
:10253000F4E020E520831182E6E7F4E015821682BC
:102540001186138642E050E060E070E044875587D2
:102550006687778713A215A614A620E231E033A779
:1025600022A717A6EFEBF4E01382128284839583EF
:10257000A683B78388E291E091838083128E118EC7
:10258000148608950E940413A59F900DB49F900D8A
:10259000A49F800D911D112408952F923F924F9278
:1025A0005F926F927F928F929F92AF92BF92CF92E3
:1025B000DF92EF92FF920F931F93CF93DF93CDB7EC
:1025C000DEB7CA1BDB0B0FB6F894DEBF0FBECDBF64
:1025D00009942A88398848885F846E847D848C8435
:1025E0009B84AA84B984C884DF80EE80FD800C813E
:1025F0001B81AA81B981CE0FD11D0FB6F894DEBF21
:102600000FBECDBFED010895A29FB001B39FC001E1
:10261000A39F700D811D1124911DB29F700D811D0E
:102620001124911D0895A1E21A2EAA1BBB1BFD01C6
:102630000DC0AA1FBB1FEE1FFF1FA217B307E407A1
:10264000F50720F0A21BB30BE40BF50B661F771FF9
:10265000881F991F1A9469F76095709580959095D9
:102660009B01AC01BD01CF010895EE0FFF1F059046
:10267000F491E02D0994CF93DF938230910510F40B
:1026800082E090E0E091DC04F091DD0420E030E0B5
:10269000C0E0D0E0309711F14081518148175907CF
:1026A000C0F04817590761F482819381209719F08F
:1026B0009B838A832BC09093DD048093DC0426C027
:1026C0002115310519F04217530718F49A01BE017C
:1026D000DF01EF010280F381E02DDCCF2115310510
:1026E00009F1281B390B2430310590F412968D9195
:1026F0009C9113976115710521F0FB0193838283EF
:1027000004C09093DD048093DC04FD01329644C044
:10271000FD01E20FF31F81939193225031092D9314
:102720003C933AC02091DA043091DB04232B41F42E
:1027300020910601309107013093DB042093DA04E5
:1027400020910401309105012115310541F42DB787
:102750003EB74091080150910901241B350BE091CF
:10276000DA04F091DB04E217F307A0F42E1B3F0B11
:102770002817390778F0AC014E5F5F4F24173507F3
:1027800048F04E0F5F1F5093DB044093DA048193AF
:10279000919302C0E0E0F0E0CF01DF91CF91089586
:1027A0000F931F93CF93DF93009709F48CC0FC0124
:1027B0003297138212820091DC041091DD0401151E
:1027C000110581F420813181820F931F2091DA0459
:1027D0003091DB042817390779F5F093DB04E09397
:1027E000DA0471C0D80140E050E0AE17BF0750F4E2
:1027F00012962D913C911397AD012115310509F1E8
:10280000D901F3CF9D01DA01338322836081718185
:10281000860F971F8217930769F4EC01288139818D
:10282000260F371F2E5F3F4F318320838A819B8184
:1028300093838283452B29F4F093DD04E093DC0439
:1028400042C01396FC93EE931297ED014991599172
:102850009E01240F351FE217F30771F480819181E7
:10286000840F951F029611969C938E93828193817B
:1028700013969C938E931297E0E0F0E0D8011296A5
:102880008D919C911397009719F0F8018C01F6CF68
:102890008D919C9198012E5F3F4F820F931F209145
:1028A000DA043091DB042817390769F4309729F4EA
:1028B0001092DD041092DC0402C013821282109385
:1028C000DB040093DA04DF91CF911F910F910895FB
:1028D000A0E0B0E0EEE6F4E10C94D112EC01009738
:1028E00021F4CB010E943B13B8C0FC01E60FF71F97
:1028F0009C0122503109E217F30708F4ACC0D9015A
:102900000D911C91119706171707B0F005301105AE
:1029100008F49FC0C80104978617970708F499C068
:1029200002501109061B170B019311936D937C93B1
:10293000CF010E94D0138DC05B01A01AB10A4C01D7
:10294000800E911EA091DC04B091DD0440E050E0C7
:10295000E12CF12C109709F44AC0A815B905D1F55E
:102960006D907C901197630182E0C80ED11CCA144F
:10297000DB0480F1A3014A195B096A0182E0C80EF9
:10298000D11C1296BC9012971396AC91B5E0CB1661
:10299000D10440F0B282A38351834083D9016D9367
:1029A0007C930AC00E5F1F4FC301800F911FF90176
:1029B00091838083EB2DFA2FE114F10431F0D701DC
:1029C0001396FC93EE93129744C0F093DD04E093CA
:1029D000DC043FC08D919C9111974817590708F46A
:1029E000AC017D0112960D90BC91A02DB3CF8091CA
:1029F000DA049091DB0488159905E1F4461757072E
:102A0000C8F48091040190910501009741F48DB7BD
:102A10009EB74091080150910901841B950BE8175E
:102A2000F907C8F4F093DB04E093DA04F901718349
:102A300060830FC0CB010E943B137C01009759F0CB
:102A4000A801BE010E944415CE010E94D013C70107
:102A500004C0CE0102C080E090E0CDB7DEB7EEE06A
:102A60000C94ED1281E090E0F8940C946E15FB014B
:102A7000DC0104C08D910190801921F44150504037
:102A8000C8F7881B990B0895FB01DC0102C0019077
:102A90000D9241505040D8F70895FC01819186175E
:102AA00021F08823D9F7992708953197CF01089508
:102AB000FB01DC0101900D920020E1F70895FB017C
:102AC000DC014150504048F001900D920020C9F7C0
:102AD00001C01D9241505040E0F70895F894FFCF97
:102AE000FFFFFFFF0000DE04800000000000000088
:102AF000140BD50BB1008F00A3005B0B000000008E
:102B00001909D50B00000000E8002A09C700D60A01
:102B1000E00A810700000000FE00D50BFE00FE0069
:102B2000FE00FE0000000000FE00D50B53442063B1
:102B300061726420697320726561647920746F200A
:102B40007573652E0072657475726E5F422E7478AF
:102B500074002F00526561643A004C656E677468BA
:102B60003A20000D0A0054696D653A2000657272C2
:102B70006F72206F70656E696E6720746573742E56
:102B8000747874005344206361726420696E6974C0
:102B900069616C697A6174696F6E206661696C65E0
:022BA0006400CF
:00000001FF
